{
  "contractName": "Market",
  "abi": [
    {
      "inputs": [],
      "stateMutability": "nonpayable",
      "type": "constructor"
    },
    {
      "anonymous": false,
      "inputs": [
        {
          "indexed": false,
          "internalType": "string",
          "name": "",
          "type": "string"
        },
        {
          "indexed": false,
          "internalType": "uint256",
          "name": "",
          "type": "uint256"
        }
      ],
      "name": "EventListed",
      "type": "event"
    },
    {
      "anonymous": false,
      "inputs": [
        {
          "indexed": false,
          "internalType": "string",
          "name": "eventName",
          "type": "string"
        },
        {
          "indexed": false,
          "internalType": "uint256",
          "name": "eventId",
          "type": "uint256"
        },
        {
          "indexed": false,
          "internalType": "address",
          "name": "ticketAddress",
          "type": "address"
        },
        {
          "indexed": true,
          "internalType": "address",
          "name": "purchaserAddress",
          "type": "address"
        },
        {
          "indexed": false,
          "internalType": "uint256",
          "name": "ticketId",
          "type": "uint256"
        }
      ],
      "name": "EventTicketPurchased",
      "type": "event"
    },
    {
      "inputs": [
        {
          "internalType": "uint256",
          "name": "",
          "type": "uint256"
        }
      ],
      "name": "allEvents",
      "outputs": [
        {
          "internalType": "string",
          "name": "name",
          "type": "string"
        },
        {
          "internalType": "string",
          "name": "symbol",
          "type": "string"
        },
        {
          "internalType": "address",
          "name": "ticketAddress",
          "type": "address"
        },
        {
          "internalType": "address payable",
          "name": "organizer",
          "type": "address"
        },
        {
          "internalType": "bool",
          "name": "soldOut",
          "type": "bool"
        },
        {
          "internalType": "uint256",
          "name": "price",
          "type": "uint256"
        },
        {
          "internalType": "bool",
          "name": "exists",
          "type": "bool"
        },
        {
          "internalType": "bool",
          "name": "completed",
          "type": "bool"
        },
        {
          "internalType": "uint256",
          "name": "id",
          "type": "uint256"
        },
        {
          "internalType": "uint256",
          "name": "date",
          "type": "uint256"
        }
      ],
      "stateMutability": "view",
      "type": "function"
    },
    {
      "inputs": [
        {
          "internalType": "address",
          "name": "",
          "type": "address"
        },
        {
          "internalType": "uint256",
          "name": "",
          "type": "uint256"
        }
      ],
      "name": "eventToOrganizerMapping",
      "outputs": [
        {
          "internalType": "string",
          "name": "name",
          "type": "string"
        },
        {
          "internalType": "string",
          "name": "symbol",
          "type": "string"
        },
        {
          "internalType": "address",
          "name": "ticketAddress",
          "type": "address"
        },
        {
          "internalType": "address payable",
          "name": "organizer",
          "type": "address"
        },
        {
          "internalType": "bool",
          "name": "soldOut",
          "type": "bool"
        },
        {
          "internalType": "uint256",
          "name": "price",
          "type": "uint256"
        },
        {
          "internalType": "bool",
          "name": "exists",
          "type": "bool"
        },
        {
          "internalType": "bool",
          "name": "completed",
          "type": "bool"
        },
        {
          "internalType": "uint256",
          "name": "id",
          "type": "uint256"
        },
        {
          "internalType": "uint256",
          "name": "date",
          "type": "uint256"
        }
      ],
      "stateMutability": "view",
      "type": "function"
    },
    {
      "inputs": [
        {
          "internalType": "uint256",
          "name": "",
          "type": "uint256"
        }
      ],
      "name": "eventsList",
      "outputs": [
        {
          "internalType": "string",
          "name": "name",
          "type": "string"
        },
        {
          "internalType": "string",
          "name": "symbol",
          "type": "string"
        },
        {
          "internalType": "address",
          "name": "ticketAddress",
          "type": "address"
        },
        {
          "internalType": "address payable",
          "name": "organizer",
          "type": "address"
        },
        {
          "internalType": "bool",
          "name": "soldOut",
          "type": "bool"
        },
        {
          "internalType": "uint256",
          "name": "price",
          "type": "uint256"
        },
        {
          "internalType": "bool",
          "name": "exists",
          "type": "bool"
        },
        {
          "internalType": "bool",
          "name": "completed",
          "type": "bool"
        },
        {
          "internalType": "uint256",
          "name": "id",
          "type": "uint256"
        },
        {
          "internalType": "uint256",
          "name": "date",
          "type": "uint256"
        }
      ],
      "stateMutability": "view",
      "type": "function"
    },
    {
      "inputs": [],
      "name": "listingFee",
      "outputs": [
        {
          "internalType": "uint256",
          "name": "",
          "type": "uint256"
        }
      ],
      "stateMutability": "view",
      "type": "function"
    },
    {
      "inputs": [],
      "name": "owner",
      "outputs": [
        {
          "internalType": "address payable",
          "name": "",
          "type": "address"
        }
      ],
      "stateMutability": "view",
      "type": "function"
    },
    {
      "inputs": [
        {
          "internalType": "string",
          "name": "_eventName",
          "type": "string"
        },
        {
          "internalType": "string",
          "name": "_eventSymbol",
          "type": "string"
        },
        {
          "internalType": "uint256",
          "name": "_eventCapacity",
          "type": "uint256"
        },
        {
          "internalType": "bool",
          "name": "_canResellTickets",
          "type": "bool"
        },
        {
          "internalType": "uint256",
          "name": "_resellPercentage",
          "type": "uint256"
        },
        {
          "internalType": "uint256",
          "name": "_ticketPrice",
          "type": "uint256"
        },
        {
          "internalType": "uint256",
          "name": "_date",
          "type": "uint256"
        }
      ],
      "name": "listEvent",
      "outputs": [
        {
          "internalType": "address",
          "name": "ticketAddress",
          "type": "address"
        }
      ],
      "stateMutability": "payable",
      "type": "function"
    },
    {
      "inputs": [
        {
          "internalType": "address",
          "name": "organizer",
          "type": "address"
        }
      ],
      "name": "getUsersEvents",
      "outputs": [
        {
          "components": [
            {
              "internalType": "string",
              "name": "name",
              "type": "string"
            },
            {
              "internalType": "string",
              "name": "symbol",
              "type": "string"
            },
            {
              "internalType": "address",
              "name": "ticketAddress",
              "type": "address"
            },
            {
              "internalType": "address payable",
              "name": "organizer",
              "type": "address"
            },
            {
              "internalType": "bool",
              "name": "soldOut",
              "type": "bool"
            },
            {
              "internalType": "uint256",
              "name": "price",
              "type": "uint256"
            },
            {
              "internalType": "bool",
              "name": "exists",
              "type": "bool"
            },
            {
              "internalType": "bool",
              "name": "completed",
              "type": "bool"
            },
            {
              "internalType": "uint256",
              "name": "id",
              "type": "uint256"
            },
            {
              "internalType": "uint256",
              "name": "date",
              "type": "uint256"
            }
          ],
          "internalType": "struct Market.EventDetails[]",
          "name": "",
          "type": "tuple[]"
        }
      ],
      "stateMutability": "view",
      "type": "function"
    },
    {
      "inputs": [],
      "name": "getAllEvents",
      "outputs": [
        {
          "components": [
            {
              "internalType": "string",
              "name": "name",
              "type": "string"
            },
            {
              "internalType": "string",
              "name": "symbol",
              "type": "string"
            },
            {
              "internalType": "address",
              "name": "ticketAddress",
              "type": "address"
            },
            {
              "internalType": "address payable",
              "name": "organizer",
              "type": "address"
            },
            {
              "internalType": "bool",
              "name": "soldOut",
              "type": "bool"
            },
            {
              "internalType": "uint256",
              "name": "price",
              "type": "uint256"
            },
            {
              "internalType": "bool",
              "name": "exists",
              "type": "bool"
            },
            {
              "internalType": "bool",
              "name": "completed",
              "type": "bool"
            },
            {
              "internalType": "uint256",
              "name": "id",
              "type": "uint256"
            },
            {
              "internalType": "uint256",
              "name": "date",
              "type": "uint256"
            }
          ],
          "internalType": "struct Market.EventDetails[]",
          "name": "",
          "type": "tuple[]"
        }
      ],
      "stateMutability": "view",
      "type": "function"
    },
    {
      "inputs": [
        {
          "internalType": "uint256",
          "name": "eventId",
          "type": "uint256"
        },
        {
          "internalType": "string",
          "name": "purchaserFullname",
          "type": "string"
        }
      ],
      "name": "purchaseEventTicket",
      "outputs": [],
      "stateMutability": "payable",
      "type": "function"
    }
  ],
  "bytecode": "0x608060405265da475abf000060025534801561001a57600080fd5b5060018054600160a060020a0319163317905561392b8061003c6000396000f3fe608060405260043610620000af576000357c0100000000000000000000000000000000000000000000000000000000900480638da5cb5b116200007e5780638da5cb5b146200017b5780639237b4ce1462000193578063c27a500d14620001ac578063dee69a6114620001c4578063f087c8eb14620001e957620000af565b80631b267e2714620000b45780633bec5cff14620000e35780636a1b7ecc146200012057806385a133be1462000147575b600080fd5b620000cb620000c53660046200113a565b6200020e565b604051620000da9190620012ba565b60405180910390f35b348015620000f057600080fd5b506200010862000102366004620011de565b620006d6565b604051620000da9a9998979695949392919062001494565b3480156200012d57600080fd5b506200013862000878565b604051620000da919062001711565b3480156200015457600080fd5b506200016c62000166366004620010ea565b6200087e565b604051620000da91906200133c565b3480156200018857600080fd5b50620000cb62000aa1565b620001aa620001a436600462001210565b62000ab0565b005b348015620001b957600080fd5b506200016c62000d1b565b348015620001d157600080fd5b5062000108620001e33660046200110e565b62000f28565b348015620001f657600080fd5b506200010862000208366004620011de565b62000f6b565b6000600254341015620002415760405160e560020a62461bcd028152600401620002389062001657565b60405180910390fd5b6200024d600062000f88565b60006200025b600062000f91565b600154604051919250600160a060020a0316903480156108fc02916000818181858888f1935050505015801562000296573d6000803e3d6000fd5b506000600160009054906101000a9004600160a060020a0316338689898c8f8f604051620002c49062000f95565b620002d7989796959493929190620012ce565b604051809103906000f080158015620002f4573d6000803e3d6000fd5b5060408051610140810182528c815260208082018d9052600160a060020a0384168284015233606083015260006080830181905260a083018a9052600160c084015260e08301819052610100830187905261012083018990528681526003825292909220815180519495509193849391926200037592849291019062000fa3565b50602082810151805162000390926001850192019062000fa3565b5060408281015160028301805473ffffffffffffffffffffffffffffffffffffffff19908116600160a060020a0393841617909155606085015160038501805460808801519316919093161774ff0000000000000000000000000000000000000000191660a060020a9115159190910217905560a0830151600483015560c083015160058301805460e086015160ff199091169215159290921761ff0019166101009215158302179055830151600683015561012090920151600790910155517fe30b85ff695d22fbfe45491921673c98e6ff9b761471c04388f488d96588eeed9062000481908d9086906200150d565b60405180910390a1336000908152600460209081526040822080546001810182559083529181902083518051859460080290920192620004c79284929091019062000fa3565b506020828101518051620004e2926001850192019062000fa3565b50604082015160028201805473ffffffffffffffffffffffffffffffffffffffff19908116600160a060020a0393841617909155606084015160038401805460808701519316919093161774ff0000000000000000000000000000000000000000191660a060020a9115159190910217905560a0820151600482015560c08201516005808301805460e086015160ff199091169315159390931761ff00191661010093151584021790559083015160068301556101209092015160079091015580546001810182556000919091528151805183927f036b6384b5eca791c62761152d0c79bb0604c104a5fb6f4eb0703f3154bb3db060089091020191620005ef9183916020019062000fa3565b5060208281015180516200060a926001850192019062000fa3565b50604082015160028201805473ffffffffffffffffffffffffffffffffffffffff19908116600160a060020a0393841617909155606084015160038401805460808701519316919093161774ff0000000000000000000000000000000000000000191660a060020a9115159190910217905560a0820151600482015560c082015160058201805460e085015160ff199091169215159290921761ff0019166101009215158302179055820151600682015561012090910151600790910155509998505050505050505050565b60058181548110620006e757600080fd5b90600052602060002090600802016000915090508060000180546200070c9062001726565b80601f01602080910402602001604051908101604052809291908181526020018280546200073a9062001726565b80156200078b5780601f106200075f576101008083540402835291602001916200078b565b820191906000526020600020905b8154815290600101906020018083116200076d57829003601f168201915b505050505090806001018054620007a29062001726565b80601f0160208091040260200160405190810160405280929190818152602001828054620007d09062001726565b8015620008215780601f10620007f55761010080835404028352916020019162000821565b820191906000526020600020905b8154815290600101906020018083116200080357829003601f168201915b505050600284015460038501546004860154600587015460068801546007909801549697600160a060020a0394851697948416965060ff60a060020a9094048416955091938184169361010090920490911691908a565b60025481565b600160a060020a0381166000908152600460209081526040808320805482518185028101850190935280835260609492939192909184015b8282101562000a95578382906000526020600020906008020160405180610140016040529081600082018054620008ed9062001726565b80601f01602080910402602001604051908101604052809291908181526020018280546200091b9062001726565b80156200096c5780601f1062000940576101008083540402835291602001916200096c565b820191906000526020600020905b8154815290600101906020018083116200094e57829003601f168201915b50505050508152602001600182018054620009879062001726565b80601f0160208091040260200160405190810160405280929190818152602001828054620009b59062001726565b801562000a065780601f10620009da5761010080835404028352916020019162000a06565b820191906000526020600020905b815481529060010190602001808311620009e857829003601f168201915b50505091835250506002820154600160a060020a039081166020808401919091526003840154918216604084015260ff60a060020a909204821615156060840152600484015460808401526005840154808316151560a085015261010090819004909216151560c0840152600684015460e08401526007909301549101529082526001929092019101620008b6565b5050505090505b919050565b600154600160a060020a031681565b60008281526003602052604090206005015460ff168062000ae85760405160e560020a62461bcd028152600401620002389062001620565b60008381526003602052604090206002810154600490910154600160a060020a03909116903481111562000b335760405160e560020a62461bcd0281526004016200023890620016b4565b6000858152600360208190526040808320909101549051600160a060020a03909116913480156108fc02929091818181858888f1935050505015801562000b7e573d6000803e3d6000fd5b506040517fa21193770000000000000000000000000000000000000000000000000000000081528290600160a060020a0382169063a21193779062000bca908890339060040162001467565b602060405180830381600087803b15801562000be557600080fd5b505af192505050801562000c18575060408051601f3d908101601f1916820190925262000c1591810190620011f7565b60015b62000cc25762000c27620017ce565b8062000c34575062000cb8565b6040518060600160405280602d8152602001620038c9602d9139805190602001208180519060200120141562000c9957600087815260036020819052604090912001805474ff0000000000000000000000000000000000000000191660a060020a1790555b8060405160e560020a62461bcd02815260040162000238919062001452565b3d6000803e3d6000fd5b60008781526003602052604090819020905133917fc688275aa3fd8cf1009ed5391675782e64b46ea036f686d31fde80e6e8d6cc799162000d0a91908b908990879062001531565b60405180910390a250505050505050565b60606005805480602002602001604051908101604052809291908181526020016000905b8282101562000f1e57838290600052602060002090600802016040518061014001604052908160008201805462000d769062001726565b80601f016020809104026020016040519081016040528092919081815260200182805462000da49062001726565b801562000df55780601f1062000dc95761010080835404028352916020019162000df5565b820191906000526020600020905b81548152906001019060200180831162000dd757829003601f168201915b5050505050815260200160018201805462000e109062001726565b80601f016020809104026020016040519081016040528092919081815260200182805462000e3e9062001726565b801562000e8f5780601f1062000e635761010080835404028352916020019162000e8f565b820191906000526020600020905b81548152906001019060200180831162000e7157829003601f168201915b50505091835250506002820154600160a060020a039081166020808401919091526003840154918216604084015260ff60a060020a909204821615156060840152600484015460808401526005840154808316151560a085015261010090819004909216151560c0840152600684015460e0840152600790930154910152908252600192909201910162000d3f565b5050505090505b90565b6004602052816000526040600020818154811062000f4557600080fd5b9060005260206000209060080201600091509150508060000180546200070c9062001726565b6003602052600090815260409020805481906200070c9062001726565b80546001019055565b5490565b612049806200188083390190565b82805462000fb19062001726565b90600052602060002090601f01602090048101928262000fd5576000855562001020565b82601f1062000ff057805160ff191683800117855562001020565b8280016001018555821562001020579182015b828111156200102057825182559160200191906001019062001003565b506200102e92915062001032565b5090565b5b808211156200102e576000815560010162001033565b8035600160a060020a038116811462000a9c57600080fd5b600082601f83011262001072578081fd5b813567ffffffffffffffff808211156200109057620010906200177c565b604051601f8301601f191681016020018281118282101715620010b757620010b76200177c565b604052828152848301602001861015620010cf578384fd5b82602086016020830137918201602001929092529392505050565b600060208284031215620010fc578081fd5b620011078262001049565b9392505050565b6000806040838503121562001121578081fd5b6200112c8362001049565b946020939093013593505050565b600080600080600080600060e0888a03121562001155578283fd5b873567ffffffffffffffff808211156200116d578485fd5b6200117b8b838c0162001061565b985060208a013591508082111562001191578485fd5b50620011a08a828b0162001061565b9650506040880135945060608801358015158114620011bd578384fd5b9699959850939660808101359560a0820135955060c0909101359350915050565b600060208284031215620011f0578081fd5b5035919050565b60006020828403121562001209578081fd5b5051919050565b6000806040838503121562001223578182fd5b82359150602083013567ffffffffffffffff81111562001241578182fd5b6200124f8582860162001061565b9150509250929050565b600160a060020a03169052565b15159052565b60008151808452815b81811015620012935760208185018101518683018201520162001275565b81811115620012a55782602083870101525b50601f01601f19169290920160200192915050565b600160a060020a0391909116815260200190565b6000610100600160a060020a03808c168452808b1660208501525088604084015287151560608401528660808401528560a08401528060c084015262001317818401866200126c565b905082810360e08401526200132d81856200126c565b9b9a5050505050505050505050565b60208082528251828201819052600091906040908185019080840286018301878501865b838110156200144457603f19898403018552815161014081518186526200138a828701826200126c565b915050888201518582038a870152620013a482826200126c565b91505087820151620013b98987018262001259565b50606080830151620013ce8288018262001259565b5050608080830151620013e48288018262001266565b505060a0828101519086015260c080830151620014048288018262001266565b505060e0808301516200141a8288018262001266565b50506101008281015190860152610120918201519190940152938601939086019060010162001360565b509098975050505050505050565b6000602082526200110760208301846200126c565b6000604082526200147c60408301856200126c565b9050600160a060020a03831660208301529392505050565b6000610140808352620014aa8184018e6200126c565b90508281036020840152620014c0818d6200126c565b600160a060020a039b8c16604085015299909a16606083015250951515608087015260a086019490945291151560c0850152151560e0840152610100830152610120909101529392505050565b6000604082526200152260408301856200126c565b90508260208301529392505050565b6080815284546000908190600281046001808316806200155257607f831692505b60208084108214156200158c577f4e487b710000000000000000000000000000000000000000000000000000000087526022600452602487fd5b6200159b8460808a0162001711565b828015620015b25760018114620015c457620015f2565b60ff19871682528282019750620015f2565b620015cf8e6200171a565b895b87811015620015ec57815484820152908601908401620015d1565b83019850505b50508596508a8189015250505050505062001611604083018562001259565b82606083015295945050505050565b60208082526019908201527f496e76616c6964206576656e742049642070726f766964656400000000000000604082015260600190565b60208082526037908201527f596f752063616e6e6f74206c69737420616e206576656e7420776974686f757460408201527f20706179696e6720746865206c697374696e6720666565000000000000000000606082015260800190565b60208082526028908201527f56616c75652070726f7669646564206973206c657373207468616e207469636b60408201527f6574207072696365000000000000000000000000000000000000000000000000606082015260800190565b90815260200190565b60009081526020902090565b6002810460018216806200173b57607f821691505b6020821081141562001776577f4e487b7100000000000000000000000000000000000000000000000000000000600052602260045260246000fd5b50919050565b7f4e487b7100000000000000000000000000000000000000000000000000000000600052604160045260246000fd5b7c0100000000000000000000000000000000000000000000000000000000900490565b600060443d1015620017e05762000f25565b600481823e6308c379a0620017f68251620017ab565b14620018025762000f25565b6040513d600319016004823e80513d67ffffffffffffffff816024840111818411171562001834575050505062000f25565b8284019250825191508082111562001850575050505062000f25565b503d830160208284010111156200186a5750505062000f25565b601f01601f191681016020016040529150509056fe60806040523480156200001157600080fd5b50604051620020493803806200204983398101604081905262000034916200023c565b8151829082906200004d906000906020850190620000ce565b50805162000063906001906020840190620000ce565b505060078054600160a060020a039a8b16600160a060020a0319918216179091556008805499909a1698169790971790975550600a805493151560ff19948516179055600993909355600c92909255600b91909155600e8054909116905550506000600d5562000384565b828054620000dc90620002ff565b90600052602060002090601f0160209004810192826200010057600085556200014b565b82601f106200011b57805160ff19168380011785556200014b565b828001600101855582156200014b579182015b828111156200014b5782518255916020019190600101906200012e565b50620001599291506200015d565b5090565b5b808211156200015957600081556001016200015e565b8051600160a060020a03811681146200018c57600080fd5b919050565b600082601f830112620001a2578081fd5b81516001604060020a0380821115620001bf57620001bf62000355565b6040516020601f8401601f1916820181018381118382101715620001e757620001e762000355565b6040528382528584018101871015620001fe578485fd5b8492505b8383101562000221578583018101518284018201529182019162000202565b838311156200023257848185840101525b5095945050505050565b600080600080600080600080610100898b03121562000259578384fd5b620002648962000174565b97506200027460208a0162000174565b9650604089015195506060890151801515811462000290578485fd5b809550506080890151935060a0890151925060c08901516001604060020a0380821115620002bc578384fd5b620002ca8c838d0162000191565b935060e08b0151915080821115620002e0578283fd5b50620002ef8b828c0162000191565b9150509295985092959890939650565b6002810460018216806200031457607f821691505b602082108114156200034f577f4e487b7100000000000000000000000000000000000000000000000000000000600052602260045260246000fd5b50919050565b7f4e487b7100000000000000000000000000000000000000000000000000000000600052604160045260246000fd5b611cb580620003946000396000f3fe608060405234801561001057600080fd5b506004361061016a576000357c0100000000000000000000000000000000000000000000000000000000900480636a412749116100e0578063a211937711610099578063a211937714610299578063a22cb465146102ac578063b88d4fde146102bf578063c87b56dd146102d2578063ce78131f146102e5578063e985e9c5146102ed5761016a565b80636a4127491461025357806370a082311461025b5780637fae47cf1461026e578063893da6c9146102815780638f15024f1461028957806395d89b41146102915761016a565b806323b872dd1161013257806323b872dd146101f75780633da7796c1461020a57806342842e0e1461021d5780635cfc1a511461023057806361203265146102385780636352211e146102405761016a565b806301ffc9a71461016f57806306fdde0314610198578063081812fc146101ad578063095ea7b3146101cd5780631209b1f6146101e2575b600080fd5b61018261017d3660046113dc565b610300565b60405161018f919061154f565b60405180910390f35b6101a061037a565b60405161018f919061155a565b6101c06101bb36600461146a565b61040c565b60405161018f91906114ff565b6101e06101db3660046113b3565b61045b565b005b6101ea6104f9565b60405161018f9190611b00565b6101e06102053660046112c5565b6104ff565b6101a061021836600461146a565b61053a565b6101e061022b3660046112c5565b6105d8565b6101ea6105f3565b6101c06105f9565b6101c061024e36600461146a565b610608565b610182610640565b6101ea610269366004611279565b610649565b6101e061027c366004611482565b610690565b610182610737565b6101ea610740565b6101a0610746565b6101ea6102a7366004611414565b610755565b6101e06102ba366004611379565b61088e565b6101e06102cd366004611300565b61095f565b6101a06102e036600461146a565b6109a1565b6101ea610a27565b6101826102fb366004611293565b610a2d565b6000600160e060020a031982167f80ac58cd0000000000000000000000000000000000000000000000000000000014806103635750600160e060020a031982167f5b5e139f00000000000000000000000000000000000000000000000000000000145b80610372575061037282610a5b565b90505b919050565b60606000805461038990611bae565b80601f01602080910402602001604051908101604052809291908181526020018280546103b590611bae565b80156104025780601f106103d757610100808354040283529160200191610402565b820191906000526020600020905b8154815290600101906020018083116103e557829003601f168201915b5050505050905090565b600061041782610a8d565b61043f5760405160e560020a62461bcd0281526004016104369061183e565b60405180910390fd5b50600090815260046020526040902054600160a060020a031690565b600061046682610608565b905080600160a060020a031683600160a060020a0316141561049d5760405160e560020a62461bcd02815260040161043690611955565b80600160a060020a03166104af610aaa565b600160a060020a031614806104cb57506104cb816102fb610aaa565b6104ea5760405160e560020a62461bcd028152600401610436906116f2565b6104f48383610aae565b505050565b60095481565b61051061050a610aaa565b82610b29565b61052f5760405160e560020a62461bcd028152600401610436906119b2565b6104f4838383610bb1565b600f6020526000908152604090208054819061055590611bae565b80601f016020809104026020016040519081016040528092919081815260200182805461058190611bae565b80156105ce5780601f106105a3576101008083540402835291602001916105ce565b820191906000526020600020905b8154815290600101906020018083116105b157829003601f168201915b5050505050905081565b6104f48383836040518060200160405280600081525061095f565b600c5481565b600854600160a060020a031681565b600081815260026020526040812054600160a060020a0316806103725760405160e560020a62461bcd028152600401610436906117ac565b600a5460ff1681565b6000600160a060020a0382166106745760405160e560020a62461bcd0281526004016104369061174f565b50600160a060020a031660009081526003602052604090205490565b600a5460ff1615156001146106ba5760405160e560020a62461bcd02815260040161043690611a6c565b60006106c583610a8d565b90506001811515146106ec5760405160e560020a62461bcd02815260040161043690611aa3565b6106f73383856105d8565b7f9fa9253058c1b628d7c2e479a0b64fe37e2d4aef4ce64c05259f5b78b43532bb83338460405161072a93929190611b20565b60405180910390a1505050565b600e5460ff1681565b600d5481565b60606001805461038990611bae565b6000600c54600d541061077d5760405160e560020a62461bcd02815260040161043690611a0f565b6107876006610cf1565b60006107936006610cfa565b905061079f8382610cfe565b6007546107b690600160a060020a0316600161088e565b60408051602080820183528682526000848152600f82529290922081518051929384936107e69284920190611159565b5050600d546107f791506001611b3f565b600d556040517ff77a8cbe2a16f740e6c57f4eb87d71011b039080451dab22c7c51c75f03fa10b9061082c9084908790611b09565b60405180910390a1600c54600d54141561088657600e805460ff191660011790556040517f24ca9f876909c26a20bb16982f48b802d9a4239dd59a351a27ed4c9935d8ce559061087d904290611b00565b60405180910390a15b509392505050565b610896610aaa565b600160a060020a031682600160a060020a031614156108ca5760405160e560020a62461bcd0281526004016104369061165e565b80600560006108d7610aaa565b600160a060020a03908116825260208083019390935260409182016000908120918716808252919093529120805460ff19169215159290921790915561091b610aaa565b600160a060020a03167f17307eab39ab6107e8899845ad3d59bd9653f200f220920489ca2b5937696c3183604051610953919061154f565b60405180910390a35050565b61097061096a610aaa565b83610b29565b61098f5760405160e560020a62461bcd028152600401610436906119b2565b61099b84848484610d1c565b50505050565b60606109ac82610a8d565b6109cb5760405160e560020a62461bcd028152600401610436906118f8565b60006109d5610d52565b905060008151116109f55760405180602001604052806000815250610a20565b806109ff84610d64565b604051602001610a109291906114d0565b6040516020818303038152906040525b9392505050565b600b5481565b600160a060020a03918216600090815260056020908152604080832093909416825291909152205460ff1690565b600160e060020a031981167f01ffc9a70000000000000000000000000000000000000000000000000000000014919050565b600090815260026020526040902054600160a060020a0316151590565b3390565b6000818152600460205260409020805473ffffffffffffffffffffffffffffffffffffffff1916600160a060020a0384169081179091558190610af082610608565b600160a060020a03167f8c5be1e5ebec7d5bd14f71427d1e84f3dd0314c0f7b2291e5b200ac8c7c3b92560405160405180910390a45050565b6000610b3482610a8d565b610b535760405160e560020a62461bcd02815260040161043690611695565b6000610b5e83610608565b905080600160a060020a031684600160a060020a03161480610b99575083600160a060020a0316610b8e8461040c565b600160a060020a0316145b80610ba95750610ba98185610a2d565b949350505050565b82600160a060020a0316610bc482610608565b600160a060020a031614610bed5760405160e560020a62461bcd0281526004016104369061189b565b600160a060020a038216610c165760405160e560020a62461bcd02815260040161043690611601565b610c218383836104f4565b610c2c600082610aae565b600160a060020a0383166000908152600360205260408120805460019290610c55908490611b6b565b9091555050600160a060020a0382166000908152600360205260408120805460019290610c83908490611b3f565b9091555050600081815260026020526040808220805473ffffffffffffffffffffffffffffffffffffffff1916600160a060020a0386811691821790925591518493918716917fddf252ad1be2c89b69c2b068fc378daa952ba7f163c4a11628f55a4df523b3ef91a4505050565b80546001019055565b5490565b610d18828260405180602001604052806000815250610ed8565b5050565b610d27848484610bb1565b610d3384848484610f0e565b61099b5760405160e560020a62461bcd0281526004016104369061156d565b60408051602081019091526000815290565b606081610da5575060408051808201909152600181527f30000000000000000000000000000000000000000000000000000000000000006020820152610375565b8160005b8115610dcf5780610db981611bec565b9150610dc89050600a83611b57565b9150610da9565b60008167ffffffffffffffff811115610dfb5760e060020a634e487b7102600052604160045260246000fd5b6040519080825280601f01601f191660200182016040528015610e25576020820181803683370190505b5090505b8415610ba957610e3a600183611b6b565b9150610e47600a86611c07565b610e52906030611b3f565b7f010000000000000000000000000000000000000000000000000000000000000002818381518110610e975760e060020a634e487b7102600052603260045260246000fd5b60200101907effffffffffffffffffffffffffffffffffffffffffffffffffffffffffffff1916908160001a905350610ed1600a86611b57565b9450610e29565b610ee28383611061565b610eef6000848484610f0e565b6104f45760405160e560020a62461bcd0281526004016104369061156d565b6000610f2284600160a060020a0316611153565b156110565783600160a060020a031663150b7a02610f3e610aaa565b8786866040518563ffffffff167c0100000000000000000000000000000000000000000000000000000000028152600401610f7c9493929190611513565b602060405180830381600087803b158015610f9657600080fd5b505af1925050508015610fc6575060408051601f3d908101601f19168201909252610fc3918101906113f8565b60015b611023573d808015610ff4576040519150601f19603f3d011682016040523d82523d6000602084013e610ff9565b606091505b50805161101b5760405160e560020a62461bcd0281526004016104369061156d565b805181602001fd5b600160e060020a0319167f150b7a0200000000000000000000000000000000000000000000000000000000149050610ba9565b506001949350505050565b600160a060020a03821661108a5760405160e560020a62461bcd02815260040161043690611809565b61109381610a8d565b156110b35760405160e560020a62461bcd028152600401610436906115ca565b6110bf600083836104f4565b600160a060020a03821660009081526003602052604081208054600192906110e8908490611b3f565b9091555050600081815260026020526040808220805473ffffffffffffffffffffffffffffffffffffffff1916600160a060020a03861690811790915590518392907fddf252ad1be2c89b69c2b068fc378daa952ba7f163c4a11628f55a4df523b3ef908290a45050565b3b151590565b82805461116590611bae565b90600052602060002090601f01602090048101928261118757600085556111cd565b82601f106111a057805160ff19168380011785556111cd565b828001600101855582156111cd579182015b828111156111cd5782518255916020019190600101906111b2565b506111d99291506111dd565b5090565b5b808211156111d957600081556001016111de565b600067ffffffffffffffff8084111561120d5761120d611c4d565b604051601f8501601f19168101602001828111828210171561123157611231611c4d565b60405284815291508183850186101561124957600080fd5b8484602083013760006020868301015250509392505050565b8035600160a060020a038116811461037557600080fd5b60006020828403121561128a578081fd5b610a2082611262565b600080604083850312156112a5578081fd5b6112ae83611262565b91506112bc60208401611262565b90509250929050565b6000806000606084860312156112d9578081fd5b6112e284611262565b92506112f060208501611262565b9150604084013590509250925092565b60008060008060808587031215611315578081fd5b61131e85611262565b935061132c60208601611262565b925060408501359150606085013567ffffffffffffffff81111561134e578182fd5b8501601f8101871361135e578182fd5b61136d878235602084016111f2565b91505092959194509250565b6000806040838503121561138b578182fd5b61139483611262565b9150602083013580151581146113a8578182fd5b809150509250929050565b600080604083850312156113c5578182fd5b6113ce83611262565b946020939093013593505050565b6000602082840312156113ed578081fd5b8135610a2081611c66565b600060208284031215611409578081fd5b8151610a2081611c66565b60008060408385031215611426578182fd5b823567ffffffffffffffff81111561143c578283fd5b8301601f8101851361144c578283fd5b61145b858235602084016111f2565b9250506112bc60208401611262565b60006020828403121561147b578081fd5b5035919050565b60008060408385031215611494578182fd5b823591506112bc60208401611262565b600081518084526114bc816020860160208601611b82565b601f01601f19169290920160200192915050565b600083516114e2818460208801611b82565b8351908301906114f6818360208801611b82565b01949350505050565b600160a060020a0391909116815260200190565b6000600160a060020a0380871683528086166020840152508360408301526080606083015261154560808301846114a4565b9695505050505050565b901515815260200190565b600060208252610a2060208301846114a4565b60208082526032908201527f4552433732313a207472616e7366657220746f206e6f6e20455243373231526560408201527f63656976657220696d706c656d656e7465720000000000000000000000000000606082015260800190565b6020808252601c908201527f4552433732313a20746f6b656e20616c7265616479206d696e74656400000000604082015260600190565b60208082526024908201527f4552433732313a207472616e7366657220746f20746865207a65726f2061646460408201527f7265737300000000000000000000000000000000000000000000000000000000606082015260800190565b60208082526019908201527f4552433732313a20617070726f766520746f2063616c6c657200000000000000604082015260600190565b6020808252602c908201527f4552433732313a206f70657261746f7220717565727920666f72206e6f6e657860408201527f697374656e7420746f6b656e0000000000000000000000000000000000000000606082015260800190565b60208082526038908201527f4552433732313a20617070726f76652063616c6c6572206973206e6f74206f7760408201527f6e6572206e6f7220617070726f76656420666f7220616c6c0000000000000000606082015260800190565b6020808252602a908201527f4552433732313a2062616c616e636520717565727920666f7220746865207a6560408201527f726f206164647265737300000000000000000000000000000000000000000000606082015260800190565b60208082526029908201527f4552433732313a206f776e657220717565727920666f72206e6f6e657869737460408201527f656e7420746f6b656e0000000000000000000000000000000000000000000000606082015260800190565b6020808252818101527f4552433732313a206d696e7420746f20746865207a65726f2061646472657373604082015260600190565b6020808252602c908201527f4552433732313a20617070726f76656420717565727920666f72206e6f6e657860408201527f697374656e7420746f6b656e0000000000000000000000000000000000000000606082015260800190565b60208082526029908201527f4552433732313a207472616e73666572206f6620746f6b656e2074686174206960408201527f73206e6f74206f776e0000000000000000000000000000000000000000000000606082015260800190565b6020808252602f908201527f4552433732314d657461646174613a2055524920717565727920666f72206e6f60408201527f6e6578697374656e7420746f6b656e0000000000000000000000000000000000606082015260800190565b60208082526021908201527f4552433732313a20617070726f76616c20746f2063757272656e74206f776e6560408201527f7200000000000000000000000000000000000000000000000000000000000000606082015260800190565b60208082526031908201527f4552433732313a207472616e736665722063616c6c6572206973206e6f74206f60408201527f776e6572206e6f7220617070726f766564000000000000000000000000000000606082015260800190565b6020808252602d908201527f5469636b65747320666f722074686973206576656e742061726520637572726560408201527f6e746c7920736f6c64206f757400000000000000000000000000000000000000606082015260800190565b6020808252601c908201527f54686973205469636b65742063616e6e6f74206265207265736f6c6400000000604082015260600190565b60208082526021908201527f5469636b65742069642070726f766964656420646f6573206e6f74206578697360408201527f7400000000000000000000000000000000000000000000000000000000000000606082015260800190565b90815260200190565b918252600160a060020a0316602082015260400190565b928352600160a060020a03918216602084015216604082015260600190565b60008219821115611b5257611b52611c1b565b500190565b600082611b6657611b66611c34565b500490565b600082821015611b7d57611b7d611c1b565b500390565b60005b83811015611b9d578181015183820152602001611b85565b8381111561099b5750506000910152565b600281046001821680611bc257607f821691505b60208210811415611be65760e060020a634e487b7102600052602260045260246000fd5b50919050565b6000600019821415611c0057611c00611c1b565b5060010190565b600082611c1657611c16611c34565b500690565b60e060020a634e487b7102600052601160045260246000fd5b60e060020a634e487b7102600052601260045260246000fd5b60e060020a634e487b7102600052604160045260246000fd5b600160e060020a031981168114611c7c57600080fd5b5056fea26469706673582212200928752b9118ecf07ffc47f3d516659b0aa7bc1dd4ca2e53a417ee05febde6ab64736f6c634300080000335469636b65747320666f722074686973206576656e74206172652063757272656e746c7920736f6c64206f7574a2646970667358221220338b6262824d2da01ae88a29eefc7854fff4b05cade80e607fedc06f0cd442b064736f6c63430008000033",
  "immutableReferences": {},
  "source": "// SPDX-License-Identifier: MIT\r\npragma solidity ^0.8.0;\r\npragma abicoder v2;\r\n\r\nimport \"@openzeppelin/contracts/token/ERC721/ERC721.sol\";\r\nimport \"@openzeppelin/contracts/utils/Counters.sol\";\r\nimport \"@openzeppelin/contracts/utils/math/SafeMath.sol\";\r\nimport \"./Ticket.sol\";\r\n\r\ncontract Market {\r\n    using SafeMath for uint256;\r\n    using Counters for Counters.Counter;\r\n\r\n    Counters.Counter private _eventIds;\r\n\r\n    address payable public owner;\r\n\r\n    struct EventDetails {\r\n        string name;\r\n        string symbol;\r\n        address ticketAddress;\r\n        address payable organizer;\r\n        bool soldOut;\r\n        uint256 price;\r\n        bool exists;\r\n        bool completed;\r\n        uint256 id;\r\n        uint256 date;\r\n    }\r\n\r\n    uint256 public listingFee = 0.00024 ether;\r\n\r\n    event EventListed(string, uint256);\r\n\r\n    event EventTicketPurchased(\r\n        string eventName,\r\n        uint256 eventId,\r\n        address ticketAddress,\r\n        address indexed purchaserAddress,\r\n        uint256 ticketId\r\n    );\r\n\r\n    //represents a mapping of events to the eventId\r\n    mapping(uint256 => EventDetails) public eventsList;\r\n\r\n    //represents a mapping of events to an organizer\r\n    mapping(address => EventDetails[]) public eventToOrganizerMapping;\r\n\r\n    EventDetails[] public allEvents;\r\n\r\n    modifier onlyOwner() {\r\n        require(msg.sender == owner, \"This function is restricted to admins\");\r\n        _;\r\n    }\r\n\r\n    constructor() {\r\n        owner = payable(msg.sender);\r\n    }\r\n\r\n    function listEvent(\r\n        string memory _eventName,\r\n        string memory _eventSymbol,\r\n        uint256 _eventCapacity,\r\n        bool _canResellTickets,\r\n        uint256 _resellPercentage,\r\n        uint256 _ticketPrice,\r\n        uint256 _date\r\n    ) public payable returns (address ticketAddress) {\r\n        require(\r\n            msg.value >= listingFee,\r\n            \"You cannot list an event without paying the listing fee\"\r\n        );\r\n\r\n        //set up id for new event;\r\n        _eventIds.increment();\r\n        uint256 eventId = _eventIds.current();\r\n\r\n        //pay listing fee\r\n        owner.transfer(msg.value);\r\n\r\n        //create event contract\r\n        Ticket eventTicket = new Ticket(\r\n            owner,\r\n            msg.sender,\r\n            _ticketPrice,\r\n            _canResellTickets,\r\n            _resellPercentage,\r\n            _eventCapacity,\r\n            _eventName,\r\n            _eventSymbol\r\n        );\r\n\r\n        //create eventdetails struct\r\n        EventDetails memory details = EventDetails({\r\n            name: _eventName,\r\n            symbol: _eventSymbol,\r\n            ticketAddress: address(eventTicket),\r\n            organizer: payable(msg.sender),\r\n            soldOut: false,\r\n            price: _ticketPrice,\r\n            exists: true,\r\n            completed: false,\r\n            id: eventId,\r\n            date: _date\r\n        });\r\n\r\n        //map eventid to event details struct\r\n        eventsList[eventId] = details;\r\n\r\n        //emit event\r\n        emit EventListed(_eventName, eventId);\r\n\r\n        //add event details to event array mapped to the current msg.sender\r\n        eventToOrganizerMapping[msg.sender].push(details);\r\n\r\n        //add event to list of events;\r\n        allEvents.push(details);\r\n\r\n        return address(eventTicket);\r\n    }\r\n\r\n    function getUsersEvents(address organizer)\r\n        public\r\n        view\r\n        returns (EventDetails[] memory)\r\n    {\r\n        return eventToOrganizerMapping[organizer];\r\n    }\r\n\r\n    function getAllEvents() public view returns (EventDetails[] memory) {\r\n        return allEvents;\r\n    }\r\n\r\n    function purchaseEventTicket(\r\n        uint256 eventId,\r\n        string memory purchaserFullname\r\n    ) public payable {\r\n        bool validEventId = eventsList[eventId].exists;\r\n        if (validEventId == false) {\r\n            revert(\"Invalid event Id provided\");\r\n        }\r\n        address txAddress = eventsList[eventId].ticketAddress;\r\n        uint256 ticketPrice = eventsList[eventId].price;\r\n        require(\r\n            msg.value >= ticketPrice,\r\n            \"Value provided is less than ticket price\"\r\n        );\r\n        eventsList[eventId].organizer.transfer(msg.value);\r\n\r\n        Ticket ticket = Ticket(txAddress);\r\n        try ticket.createToken(purchaserFullname, msg.sender) returns (\r\n            uint256 id\r\n        ) {\r\n            emit EventTicketPurchased(\r\n                eventsList[eventId].name,\r\n                eventId,\r\n                txAddress,\r\n                msg.sender,\r\n                id\r\n            );\r\n        } catch Error(string memory reason) {\r\n            if (\r\n                keccak256(bytes(reason)) ==\r\n                keccak256(\r\n                    bytes(\"Tickets for this event are currently sold out\")\r\n                )\r\n            ) {\r\n                //update event details to show sold out\r\n                eventsList[eventId].soldOut = true;\r\n            }\r\n            revert(reason);\r\n        }\r\n    }\r\n\r\n    // function resellTicket(\r\n    //     uint256 eventId,\r\n    //     uint256 ticketId,\r\n    //     address buyer\r\n    // ) public payable {\r\n    //     //get event\r\n    //     EventDetails memory details = eventsList[eventId];\r\n    //     require(details.exists == true, \"Invalid event Id provided\");\r\n\r\n    //     //initialize ticket contract\r\n    //     Ticket ticketContract = Ticket(details.ticketAddress);\r\n\r\n    //     //calculate percentages\r\n    //     uint256 percentageCut = ticketContract.resellPercentage();\r\n    //     uint256 saleValue = msg.value;\r\n    //     uint256 organizerCut = saleValue.div(100).mul(percentageCut);\r\n    //     uint256 houseCut = saleValue.div(100).mul(1);\r\n    //     uint256 sellerCut = saleValue.sub(organizerCut).sub(houseCut);\r\n\r\n    //     //transfer value\r\n    //     details.organizer.transfer(organizerCut);\r\n    //     owner.transfer(houseCut);\r\n    //     address payable sellerPayableAddress = payable(msg.sender);\r\n    //     sellerPayableAddress.transfer(sellerCut);\r\n\r\n    //     try ticketContract.resellTicket(ticketId, buyer) {\r\n    //         //do some stuff here\r\n    //     } catch Error(string memory reason) {\r\n    //         revert(reason);\r\n    //     }\r\n    // }\r\n}\r\n",
  "sourcePath": "C:/Users/Asami/devStrawhat/3WEB/ticketing/contracts/Market.sol",
  "compiler": {
    "name": "solc",
    "version": "0.8.0+commit.c7dfd78e.Emscripten.clang"
  },
  "schemaVersion": "3.2.3",
  "updatedAt": "2021-12-05T14:32:08.204Z",
  "devdoc": {
    "kind": "dev",
    "methods": {},
    "version": 1
  },
  "userdoc": {
    "kind": "user",
    "methods": {},
    "version": 1
  }
}