{
  "contractName": "Market",
  "abi": [
    {
      "inputs": [],
      "stateMutability": "nonpayable",
      "type": "constructor"
    },
    {
      "anonymous": false,
      "inputs": [
        {
          "indexed": false,
          "internalType": "string",
          "name": "",
          "type": "string"
        },
        {
          "indexed": false,
          "internalType": "uint256",
          "name": "",
          "type": "uint256"
        }
      ],
      "name": "EventListed",
      "type": "event"
    },
    {
      "anonymous": false,
      "inputs": [
        {
          "indexed": false,
          "internalType": "string",
          "name": "eventName",
          "type": "string"
        },
        {
          "indexed": false,
          "internalType": "uint256",
          "name": "eventId",
          "type": "uint256"
        },
        {
          "indexed": false,
          "internalType": "address",
          "name": "ticketAddress",
          "type": "address"
        },
        {
          "indexed": false,
          "internalType": "address",
          "name": "purchaserAddress",
          "type": "address"
        },
        {
          "indexed": false,
          "internalType": "uint256",
          "name": "ticketId",
          "type": "uint256"
        }
      ],
      "name": "EventTicketPurchased",
      "type": "event"
    },
    {
      "inputs": [
        {
          "internalType": "uint256",
          "name": "",
          "type": "uint256"
        }
      ],
      "name": "allEvents",
      "outputs": [
        {
          "internalType": "string",
          "name": "name",
          "type": "string"
        },
        {
          "internalType": "string",
          "name": "symbol",
          "type": "string"
        },
        {
          "internalType": "address",
          "name": "ticketAddress",
          "type": "address"
        },
        {
          "internalType": "address payable",
          "name": "organizer",
          "type": "address"
        },
        {
          "internalType": "bool",
          "name": "soldOut",
          "type": "bool"
        },
        {
          "internalType": "uint256",
          "name": "price",
          "type": "uint256"
        },
        {
          "internalType": "bool",
          "name": "exists",
          "type": "bool"
        },
        {
          "internalType": "bool",
          "name": "completed",
          "type": "bool"
        },
        {
          "internalType": "uint256",
          "name": "id",
          "type": "uint256"
        },
        {
          "internalType": "uint256",
          "name": "date",
          "type": "uint256"
        }
      ],
      "stateMutability": "view",
      "type": "function",
      "constant": true
    },
    {
      "inputs": [
        {
          "internalType": "address",
          "name": "",
          "type": "address"
        },
        {
          "internalType": "uint256",
          "name": "",
          "type": "uint256"
        }
      ],
      "name": "eventToOrganizerMapping",
      "outputs": [
        {
          "internalType": "string",
          "name": "name",
          "type": "string"
        },
        {
          "internalType": "string",
          "name": "symbol",
          "type": "string"
        },
        {
          "internalType": "address",
          "name": "ticketAddress",
          "type": "address"
        },
        {
          "internalType": "address payable",
          "name": "organizer",
          "type": "address"
        },
        {
          "internalType": "bool",
          "name": "soldOut",
          "type": "bool"
        },
        {
          "internalType": "uint256",
          "name": "price",
          "type": "uint256"
        },
        {
          "internalType": "bool",
          "name": "exists",
          "type": "bool"
        },
        {
          "internalType": "bool",
          "name": "completed",
          "type": "bool"
        },
        {
          "internalType": "uint256",
          "name": "id",
          "type": "uint256"
        },
        {
          "internalType": "uint256",
          "name": "date",
          "type": "uint256"
        }
      ],
      "stateMutability": "view",
      "type": "function",
      "constant": true
    },
    {
      "inputs": [
        {
          "internalType": "uint256",
          "name": "",
          "type": "uint256"
        }
      ],
      "name": "eventsList",
      "outputs": [
        {
          "internalType": "string",
          "name": "name",
          "type": "string"
        },
        {
          "internalType": "string",
          "name": "symbol",
          "type": "string"
        },
        {
          "internalType": "address",
          "name": "ticketAddress",
          "type": "address"
        },
        {
          "internalType": "address payable",
          "name": "organizer",
          "type": "address"
        },
        {
          "internalType": "bool",
          "name": "soldOut",
          "type": "bool"
        },
        {
          "internalType": "uint256",
          "name": "price",
          "type": "uint256"
        },
        {
          "internalType": "bool",
          "name": "exists",
          "type": "bool"
        },
        {
          "internalType": "bool",
          "name": "completed",
          "type": "bool"
        },
        {
          "internalType": "uint256",
          "name": "id",
          "type": "uint256"
        },
        {
          "internalType": "uint256",
          "name": "date",
          "type": "uint256"
        }
      ],
      "stateMutability": "view",
      "type": "function",
      "constant": true
    },
    {
      "inputs": [],
      "name": "listingFee",
      "outputs": [
        {
          "internalType": "uint256",
          "name": "",
          "type": "uint256"
        }
      ],
      "stateMutability": "view",
      "type": "function",
      "constant": true
    },
    {
      "inputs": [],
      "name": "owner",
      "outputs": [
        {
          "internalType": "address payable",
          "name": "",
          "type": "address"
        }
      ],
      "stateMutability": "view",
      "type": "function",
      "constant": true
    },
    {
      "inputs": [
        {
          "internalType": "string",
          "name": "_eventName",
          "type": "string"
        },
        {
          "internalType": "string",
          "name": "_eventSymbol",
          "type": "string"
        },
        {
          "internalType": "uint256",
          "name": "_eventCapacity",
          "type": "uint256"
        },
        {
          "internalType": "bool",
          "name": "_canResellTickets",
          "type": "bool"
        },
        {
          "internalType": "uint256",
          "name": "_resellPercentage",
          "type": "uint256"
        },
        {
          "internalType": "uint256",
          "name": "_ticketPrice",
          "type": "uint256"
        },
        {
          "internalType": "uint256",
          "name": "_date",
          "type": "uint256"
        }
      ],
      "name": "listEvent",
      "outputs": [
        {
          "internalType": "address",
          "name": "ticketAddress",
          "type": "address"
        }
      ],
      "stateMutability": "payable",
      "type": "function",
      "payable": true
    },
    {
      "inputs": [
        {
          "internalType": "address",
          "name": "organizer",
          "type": "address"
        }
      ],
      "name": "getUsersEvents",
      "outputs": [
        {
          "components": [
            {
              "internalType": "string",
              "name": "name",
              "type": "string"
            },
            {
              "internalType": "string",
              "name": "symbol",
              "type": "string"
            },
            {
              "internalType": "address",
              "name": "ticketAddress",
              "type": "address"
            },
            {
              "internalType": "address payable",
              "name": "organizer",
              "type": "address"
            },
            {
              "internalType": "bool",
              "name": "soldOut",
              "type": "bool"
            },
            {
              "internalType": "uint256",
              "name": "price",
              "type": "uint256"
            },
            {
              "internalType": "bool",
              "name": "exists",
              "type": "bool"
            },
            {
              "internalType": "bool",
              "name": "completed",
              "type": "bool"
            },
            {
              "internalType": "uint256",
              "name": "id",
              "type": "uint256"
            },
            {
              "internalType": "uint256",
              "name": "date",
              "type": "uint256"
            }
          ],
          "internalType": "struct Market.EventDetails[]",
          "name": "",
          "type": "tuple[]"
        }
      ],
      "stateMutability": "view",
      "type": "function",
      "constant": true
    },
    {
      "inputs": [],
      "name": "getAllEvents",
      "outputs": [
        {
          "components": [
            {
              "internalType": "string",
              "name": "name",
              "type": "string"
            },
            {
              "internalType": "string",
              "name": "symbol",
              "type": "string"
            },
            {
              "internalType": "address",
              "name": "ticketAddress",
              "type": "address"
            },
            {
              "internalType": "address payable",
              "name": "organizer",
              "type": "address"
            },
            {
              "internalType": "bool",
              "name": "soldOut",
              "type": "bool"
            },
            {
              "internalType": "uint256",
              "name": "price",
              "type": "uint256"
            },
            {
              "internalType": "bool",
              "name": "exists",
              "type": "bool"
            },
            {
              "internalType": "bool",
              "name": "completed",
              "type": "bool"
            },
            {
              "internalType": "uint256",
              "name": "id",
              "type": "uint256"
            },
            {
              "internalType": "uint256",
              "name": "date",
              "type": "uint256"
            }
          ],
          "internalType": "struct Market.EventDetails[]",
          "name": "",
          "type": "tuple[]"
        }
      ],
      "stateMutability": "view",
      "type": "function",
      "constant": true
    },
    {
      "inputs": [
        {
          "internalType": "uint256",
          "name": "eventId",
          "type": "uint256"
        },
        {
          "internalType": "string",
          "name": "purchaserFullname",
          "type": "string"
        }
      ],
      "name": "purchaseEventTicket",
      "outputs": [],
      "stateMutability": "payable",
      "type": "function",
      "payable": true
    }
  ],
  "bytecode": "0x608060405265da475abf000060035534801561001a57600080fd5b50600160008190555033600260006101000a81548173ffffffffffffffffffffffffffffffffffffffff021916908373ffffffffffffffffffffffffffffffffffffffff160217905550615905806100736000396000f3fe608060405260043610620000925760003560e01c80638da5cb5b11620000615780638da5cb5b146200018e5780639237b4ce14620001be578063c27a500d14620001de578063dee69a61146200020e578063f087c8eb146200025b5762000092565b80631b267e2714620000975780633bec5cff14620000cd5780636a1b7ecc146200011a57806385a133be146200014a575b600080fd5b620000b56004803603810190620000af9190620019fb565b620002a8565b604051620000c4919062001fd1565b60405180910390f35b348015620000da57600080fd5b50620000f96004803603810190620000f3919062001ada565b62000944565b604051620001119a9998979695949392919062002123565b60405180910390f35b3480156200012757600080fd5b506200013262000b30565b604051620001419190620022df565b60405180910390f35b3480156200015757600080fd5b506200017660048036038101906200017091906200198e565b62000b36565b604051620001859190620020a7565b60405180910390f35b3480156200019b57600080fd5b50620001a662000e26565b604051620001b5919062001fee565b60405180910390f35b620001dc6004803603810190620001d6919062001b32565b62000e4c565b005b348015620001eb57600080fd5b50620001f662001159565b604051620002059190620020a7565b60405180910390f35b3480156200021b57600080fd5b506200023a6004803603810190620002349190620019ba565b6200140a565b604051620002529a9998979695949392919062002123565b60405180910390f35b3480156200026857600080fd5b5062000287600480360381019062000281919062001ada565b62001603565b6040516200029f9a9998979695949392919062002123565b60405180910390f35b6000600354341015620002f2576040517f08c379a0000000000000000000000000000000000000000000000000000000008152600401620002e9906200229b565b60405180910390fd5b620002fe6001620017de565b60006200030c6001620017f4565b9050600260009054906101000a900473ffffffffffffffffffffffffffffffffffffffff1673ffffffffffffffffffffffffffffffffffffffff166108fc349081150290604051600060405180830381858888f1935050505015801562000377573d6000803e3d6000fd5b506000600260009054906101000a900473ffffffffffffffffffffffffffffffffffffffff16338689898c8f8f604051620003b29062001802565b620003c59897969594939291906200200b565b604051809103906000f080158015620003e2573d6000803e3d6000fd5b50905060006040518061014001604052808c81526020018b81526020018373ffffffffffffffffffffffffffffffffffffffff1681526020013373ffffffffffffffffffffffffffffffffffffffff168152602001600015158152602001878152602001600115158152602001600015158152602001848152602001868152509050806004600085815260200190815260200160002060008201518160000190805190602001906200049692919062001810565b506020820151816001019080519060200190620004b592919062001810565b5060408201518160020160006101000a81548173ffffffffffffffffffffffffffffffffffffffff021916908373ffffffffffffffffffffffffffffffffffffffff16021790555060608201518160030160006101000a81548173ffffffffffffffffffffffffffffffffffffffff021916908373ffffffffffffffffffffffffffffffffffffffff16021790555060808201518160030160146101000a81548160ff02191690831515021790555060a0820151816004015560c08201518160050160006101000a81548160ff02191690831515021790555060e08201518160050160016101000a81548160ff021916908315150217905550610100820151816006015561012082015181600701559050507fe30b85ff695d22fbfe45491921673c98e6ff9b761471c04388f488d96588eeed8b84604051620005fa929190620021e1565b60405180910390a1600560003373ffffffffffffffffffffffffffffffffffffffff1673ffffffffffffffffffffffffffffffffffffffff16815260200190815260200160002081908060018154018082558091505060019003906000526020600020906008020160009091909190915060008201518160000190805190602001906200068992919062001810565b506020820151816001019080519060200190620006a892919062001810565b5060408201518160020160006101000a81548173ffffffffffffffffffffffffffffffffffffffff021916908373ffffffffffffffffffffffffffffffffffffffff16021790555060608201518160030160006101000a81548173ffffffffffffffffffffffffffffffffffffffff021916908373ffffffffffffffffffffffffffffffffffffffff16021790555060808201518160030160146101000a81548160ff02191690831515021790555060a0820151816004015560c08201518160050160006101000a81548160ff02191690831515021790555060e08201518160050160016101000a81548160ff021916908315150217905550610100820151816006015561012082015181600701555050600681908060018154018082558091505060019003906000526020600020906008020160009091909190915060008201518160000190805190602001906200080392919062001810565b5060208201518160010190805190602001906200082292919062001810565b5060408201518160020160006101000a81548173ffffffffffffffffffffffffffffffffffffffff021916908373ffffffffffffffffffffffffffffffffffffffff16021790555060608201518160030160006101000a81548173ffffffffffffffffffffffffffffffffffffffff021916908373ffffffffffffffffffffffffffffffffffffffff16021790555060808201518160030160146101000a81548160ff02191690831515021790555060a0820151816004015560c08201518160050160006101000a81548160ff02191690831515021790555060e08201518160050160016101000a81548160ff021916908315150217905550610100820151816006015561012082015181600701555050819350505050979650505050505050565b600681815481106200095557600080fd5b90600052602060002090600802016000915090508060000180546200097a90620024bd565b80601f0160208091040260200160405190810160405280929190818152602001828054620009a890620024bd565b8015620009f95780601f10620009cd57610100808354040283529160200191620009f9565b820191906000526020600020905b815481529060010190602001808311620009db57829003601f168201915b50505050509080600101805462000a1090620024bd565b80601f016020809104026020016040519081016040528092919081815260200182805462000a3e90620024bd565b801562000a8f5780601f1062000a635761010080835404028352916020019162000a8f565b820191906000526020600020905b81548152906001019060200180831162000a7157829003601f168201915b5050505050908060020160009054906101000a900473ffffffffffffffffffffffffffffffffffffffff16908060030160009054906101000a900473ffffffffffffffffffffffffffffffffffffffff16908060030160149054906101000a900460ff16908060040154908060050160009054906101000a900460ff16908060050160019054906101000a900460ff1690806006015490806007015490508a565b60035481565b6060600560008373ffffffffffffffffffffffffffffffffffffffff1673ffffffffffffffffffffffffffffffffffffffff168152602001908152602001600020805480602002602001604051908101604052809291908181526020016000905b8282101562000e1b57838290600052602060002090600802016040518061014001604052908160008201805462000bce90620024bd565b80601f016020809104026020016040519081016040528092919081815260200182805462000bfc90620024bd565b801562000c4d5780601f1062000c215761010080835404028352916020019162000c4d565b820191906000526020600020905b81548152906001019060200180831162000c2f57829003601f168201915b5050505050815260200160018201805462000c6890620024bd565b80601f016020809104026020016040519081016040528092919081815260200182805462000c9690620024bd565b801562000ce75780601f1062000cbb5761010080835404028352916020019162000ce7565b820191906000526020600020905b81548152906001019060200180831162000cc957829003601f168201915b505050505081526020016002820160009054906101000a900473ffffffffffffffffffffffffffffffffffffffff1673ffffffffffffffffffffffffffffffffffffffff1673ffffffffffffffffffffffffffffffffffffffff1681526020016003820160009054906101000a900473ffffffffffffffffffffffffffffffffffffffff1673ffffffffffffffffffffffffffffffffffffffff1673ffffffffffffffffffffffffffffffffffffffff1681526020016003820160149054906101000a900460ff16151515158152602001600482015481526020016005820160009054906101000a900460ff161515151581526020016005820160019054906101000a900460ff16151515158152602001600682015481526020016007820154815250508152602001906001019062000b97565b505050509050919050565b600260009054906101000a900473ffffffffffffffffffffffffffffffffffffffff1681565b60006004600084815260200190815260200160002060050160009054906101000a900460ff16905060001515811515141562000ebf576040517f08c379a000000000000000000000000000000000000000000000000000000000815260040162000eb69062002279565b60405180910390fd5b60006004600085815260200190815260200160002060020160009054906101000a900473ffffffffffffffffffffffffffffffffffffffff1690506000600460008681526020019081526020016000206004015490508034101562000f5b576040517f08c379a000000000000000000000000000000000000000000000000000000000815260040162000f5290620022bd565b60405180910390fd5b6004600086815260200190815260200160002060030160009054906101000a900473ffffffffffffffffffffffffffffffffffffffff1673ffffffffffffffffffffffffffffffffffffffff166108fc349081150290604051600060405180830381858888f1935050505015801562000fd8573d6000803e3d6000fd5b5060008290508073ffffffffffffffffffffffffffffffffffffffff1663a211937786336040518363ffffffff1660e01b81526004016200101b929190620020ef565b602060405180830381600087803b1580156200103657600080fd5b505af19250505080156200106a57506040513d601f19601f8201168201806040525081019062001067919062001b06565b60015b620010fa57620010796200256f565b80620010865750620010f0565b6040518060600160405280602d8152602001620058a3602d91398051906020012081805190602001205050806040517f08c379a0000000000000000000000000000000000000000000000000000000008152600401620010e79190620020cb565b60405180910390fd5b3d6000803e3d6000fd5b7fc688275aa3fd8cf1009ed5391675782e64b46ea036f686d31fde80e6e8d6cc7960046000898152602001908152602001600020600001888633856040516200114895949392919062002215565b60405180910390a150505050505050565b60606006805480602002602001604051908101604052809291908181526020016000905b8282101562001401578382906000526020600020906008020160405180610140016040529081600082018054620011b490620024bd565b80601f0160208091040260200160405190810160405280929190818152602001828054620011e290620024bd565b8015620012335780601f10620012075761010080835404028352916020019162001233565b820191906000526020600020905b8154815290600101906020018083116200121557829003601f168201915b505050505081526020016001820180546200124e90620024bd565b80601f01602080910402602001604051908101604052809291908181526020018280546200127c90620024bd565b8015620012cd5780601f10620012a157610100808354040283529160200191620012cd565b820191906000526020600020905b815481529060010190602001808311620012af57829003601f168201915b505050505081526020016002820160009054906101000a900473ffffffffffffffffffffffffffffffffffffffff1673ffffffffffffffffffffffffffffffffffffffff1673ffffffffffffffffffffffffffffffffffffffff1681526020016003820160009054906101000a900473ffffffffffffffffffffffffffffffffffffffff1673ffffffffffffffffffffffffffffffffffffffff1673ffffffffffffffffffffffffffffffffffffffff1681526020016003820160149054906101000a900460ff16151515158152602001600482015481526020016005820160009054906101000a900460ff161515151581526020016005820160019054906101000a900460ff1615151515815260200160068201548152602001600782015481525050815260200190600101906200117d565b50505050905090565b600560205281600052604060002081815481106200142757600080fd5b9060005260206000209060080201600091509150508060000180546200144d90620024bd565b80601f01602080910402602001604051908101604052809291908181526020018280546200147b90620024bd565b8015620014cc5780601f10620014a057610100808354040283529160200191620014cc565b820191906000526020600020905b815481529060010190602001808311620014ae57829003601f168201915b505050505090806001018054620014e390620024bd565b80601f01602080910402602001604051908101604052809291908181526020018280546200151190620024bd565b8015620015625780601f10620015365761010080835404028352916020019162001562565b820191906000526020600020905b8154815290600101906020018083116200154457829003601f168201915b5050505050908060020160009054906101000a900473ffffffffffffffffffffffffffffffffffffffff16908060030160009054906101000a900473ffffffffffffffffffffffffffffffffffffffff16908060030160149054906101000a900460ff16908060040154908060050160009054906101000a900460ff16908060050160019054906101000a900460ff1690806006015490806007015490508a565b60046020528060005260406000206000915090508060000180546200162890620024bd565b80601f01602080910402602001604051908101604052809291908181526020018280546200165690620024bd565b8015620016a75780601f106200167b57610100808354040283529160200191620016a7565b820191906000526020600020905b8154815290600101906020018083116200168957829003601f168201915b505050505090806001018054620016be90620024bd565b80601f0160208091040260200160405190810160405280929190818152602001828054620016ec90620024bd565b80156200173d5780601f1062001711576101008083540402835291602001916200173d565b820191906000526020600020905b8154815290600101906020018083116200171f57829003601f168201915b5050505050908060020160009054906101000a900473ffffffffffffffffffffffffffffffffffffffff16908060030160009054906101000a900473ffffffffffffffffffffffffffffffffffffffff16908060030160149054906101000a900460ff16908060040154908060050160009054906101000a900460ff16908060050160019054906101000a900460ff1690806006015490806007015490508a565b6001816000016000828254019250508190555050565b600081600001549050919050565b613221806200268283390190565b8280546200181e90620024bd565b90600052602060002090601f0160209004810192826200184257600085556200188e565b82601f106200185d57805160ff19168380011785556200188e565b828001600101855582156200188e579182015b828111156200188d57825182559160200191906001019062001870565b5b5090506200189d9190620018a1565b5090565b5b80821115620018bc576000816000905550600101620018a2565b5090565b6000620018d7620018d18462002330565b620022fc565b905082815260208101848484011115620018f057600080fd5b620018fd84828562002478565b509392505050565b600081359050620019168162002633565b92915050565b6000813590506200192d816200264d565b92915050565b600082601f8301126200194557600080fd5b813562001957848260208601620018c0565b91505092915050565b600081359050620019718162002667565b92915050565b600081519050620019888162002667565b92915050565b600060208284031215620019a157600080fd5b6000620019b18482850162001905565b91505092915050565b60008060408385031215620019ce57600080fd5b6000620019de8582860162001905565b9250506020620019f18582860162001960565b9150509250929050565b600080600080600080600060e0888a03121562001a1757600080fd5b600088013567ffffffffffffffff81111562001a3257600080fd5b62001a408a828b0162001933565b975050602088013567ffffffffffffffff81111562001a5e57600080fd5b62001a6c8a828b0162001933565b965050604062001a7f8a828b0162001960565b955050606062001a928a828b016200191c565b945050608062001aa58a828b0162001960565b93505060a062001ab88a828b0162001960565b92505060c062001acb8a828b0162001960565b91505092959891949750929550565b60006020828403121562001aed57600080fd5b600062001afd8482850162001960565b91505092915050565b60006020828403121562001b1957600080fd5b600062001b298482850162001977565b91505092915050565b6000806040838503121562001b4657600080fd5b600062001b568582860162001960565b925050602083013567ffffffffffffffff81111562001b7457600080fd5b62001b828582860162001933565b9150509250929050565b600062001b9a838362001eba565b905092915050565b62001bad816200243c565b82525050565b62001bbe81620023f2565b82525050565b62001bcf81620023f2565b82525050565b62001be081620023de565b82525050565b62001bf181620023de565b82525050565b600062001c048262002388565b62001c108185620023ab565b93508360208202850162001c248562002363565b8060005b8581101562001c66578484038952815162001c44858262001b8c565b945062001c51836200239e565b925060208a0199505060018101905062001c28565b50829750879550505050505092915050565b62001c838162002406565b82525050565b62001c948162002406565b82525050565b600062001ca78262002393565b62001cb38185620023bc565b935062001cc581856020860162002487565b62001cd08162002551565b840191505092915050565b600062001ce88262002393565b62001cf48185620023cd565b935062001d0681856020860162002487565b62001d118162002551565b840191505092915050565b6000815462001d2b81620024bd565b62001d378186620023cd565b9450600182166000811462001d55576001811462001d685762001d9f565b60ff198316865260208601935062001d9f565b62001d738562002373565b60005b8381101562001d975781548189015260018201915060208101905062001d76565b808801955050505b50505092915050565b600062001db7601983620023cd565b91507f496e76616c6964206576656e742049642070726f7669646564000000000000006000830152602082019050919050565b600062001df9603783620023cd565b91507f596f752063616e6e6f74206c69737420616e206576656e7420776974686f757460008301527f20706179696e6720746865206c697374696e67206665650000000000000000006020830152604082019050919050565b600062001e61602883620023cd565b91507f56616c75652070726f7669646564206973206c657373207468616e207469636b60008301527f65742070726963650000000000000000000000000000000000000000000000006020830152604082019050919050565b600061014083016000830151848203600086015262001eda828262001c9a565b9150506020830151848203602086015262001ef6828262001c9a565b915050604083015162001f0d604086018262001bd5565b50606083015162001f22606086018262001bb3565b50608083015162001f37608086018262001c78565b5060a083015162001f4c60a086018262001faf565b5060c083015162001f6160c086018262001c78565b5060e083015162001f7660e086018262001c78565b5061010083015162001f8d61010086018262001faf565b5061012083015162001fa461012086018262001faf565b508091505092915050565b62001fba8162002432565b82525050565b62001fcb8162002432565b82525050565b600060208201905062001fe8600083018462001be6565b92915050565b600060208201905062002005600083018462001bc4565b92915050565b60006101008201905062002023600083018b62001ba2565b62002032602083018a62001be6565b62002041604083018962001fc0565b62002050606083018862001c89565b6200205f608083018762001fc0565b6200206e60a083018662001fc0565b81810360c083015262002082818562001cdb565b905081810360e083015262002098818462001cdb565b90509998505050505050505050565b60006020820190508181036000830152620020c3818462001bf7565b905092915050565b60006020820190508181036000830152620020e7818462001cdb565b905092915050565b600060408201905081810360008301526200210b818562001cdb565b90506200211c602083018462001be6565b9392505050565b600061014082019050818103600083015262002140818d62001cdb565b9050818103602083015262002156818c62001cdb565b905062002167604083018b62001be6565b62002176606083018a62001bc4565b62002185608083018962001c89565b6200219460a083018862001fc0565b620021a360c083018762001c89565b620021b260e083018662001c89565b620021c261010083018562001fc0565b620021d261012083018462001fc0565b9b9a5050505050505050505050565b60006040820190508181036000830152620021fd818562001cdb565b90506200220e602083018462001fc0565b9392505050565b600060a082019050818103600083015262002231818862001d1c565b905062002242602083018762001fc0565b62002251604083018662001be6565b62002260606083018562001be6565b6200226f608083018462001fc0565b9695505050505050565b60006020820190508181036000830152620022948162001da8565b9050919050565b60006020820190508181036000830152620022b68162001dea565b9050919050565b60006020820190508181036000830152620022d88162001e52565b9050919050565b6000602082019050620022f6600083018462001fc0565b92915050565b6000604051905081810181811067ffffffffffffffff8211171562002326576200232562002522565b5b8060405250919050565b600067ffffffffffffffff8211156200234e576200234d62002522565b5b601f19601f8301169050602081019050919050565b6000819050602082019050919050565b60008190508160005260206000209050919050565b600081519050919050565b600081519050919050565b6000602082019050919050565b600082825260208201905092915050565b600082825260208201905092915050565b600082825260208201905092915050565b6000620023eb8262002412565b9050919050565b6000620023ff8262002412565b9050919050565b60008115159050919050565b600073ffffffffffffffffffffffffffffffffffffffff82169050919050565b6000819050919050565b6000620024498262002450565b9050919050565b60006200245d8262002464565b9050919050565b6000620024718262002412565b9050919050565b82818337600083830152505050565b60005b83811015620024a75780820151818401526020810190506200248a565b83811115620024b7576000848401525b50505050565b60006002820490506001821680620024d657607f821691505b60208210811415620024ed57620024ec620024f3565b5b50919050565b7f4e487b7100000000000000000000000000000000000000000000000000000000600052602260045260246000fd5b7f4e487b7100000000000000000000000000000000000000000000000000000000600052604160045260246000fd5b6000601f19601f8301169050919050565b60008160e01c9050919050565b600060443d1015620025815762002630565b60046000803e6200259460005162002562565b6308c379a08114620025a7575062002630565b60405160043d036004823e80513d602482011167ffffffffffffffff82111715620025d55750505062002630565b808201805167ffffffffffffffff811115620025f657505050505062002630565b8060208301013d8501811115620026135750505050505062002630565b6200261e8262002551565b60208401016040528296505050505050505b90565b6200263e81620023de565b81146200264a57600080fd5b50565b620026588162002406565b81146200266457600080fd5b50565b620026728162002432565b81146200267e57600080fd5b5056fe60806040523480156200001157600080fd5b5060405162003221380380620032218339818101604052810190620000379190620002b6565b81818160009080519060200190620000519291906200014f565b5080600190805190602001906200006a9291906200014f565b50505087600760006101000a81548173ffffffffffffffffffffffffffffffffffffffff021916908373ffffffffffffffffffffffffffffffffffffffff16021790555086600860006101000a81548173ffffffffffffffffffffffffffffffffffffffff021916908373ffffffffffffffffffffffffffffffffffffffff16021790555084600a60006101000a81548160ff0219169083151502179055508560098190555082600c8190555083600b819055506000600e60006101000a81548160ff0219169083151502179055506000600d81905550505050505050505062000574565b8280546200015d9062000492565b90600052602060002090601f016020900481019282620001815760008555620001cd565b82601f106200019c57805160ff1916838001178555620001cd565b82800160010185558215620001cd579182015b82811115620001cc578251825591602001919060010190620001af565b5b509050620001dc9190620001e0565b5090565b5b80821115620001fb576000816000905550600101620001e1565b5090565b6000620002166200021084620003df565b620003ab565b9050828152602081018484840111156200022f57600080fd5b6200023c8482856200045c565b509392505050565b600081519050620002558162000526565b92915050565b6000815190506200026c8162000540565b92915050565b600082601f8301126200028457600080fd5b815162000296848260208601620001ff565b91505092915050565b600081519050620002b0816200055a565b92915050565b600080600080600080600080610100898b031215620002d457600080fd5b6000620002e48b828c0162000244565b9850506020620002f78b828c0162000244565b97505060406200030a8b828c016200029f565b96505060606200031d8b828c016200025b565b9550506080620003308b828c016200029f565b94505060a0620003438b828c016200029f565b93505060c089015167ffffffffffffffff8111156200036157600080fd5b6200036f8b828c0162000272565b92505060e089015167ffffffffffffffff8111156200038d57600080fd5b6200039b8b828c0162000272565b9150509295985092959890939650565b6000604051905081810181811067ffffffffffffffff82111715620003d557620003d4620004f7565b5b8060405250919050565b600067ffffffffffffffff821115620003fd57620003fc620004f7565b5b601f19601f8301169050602081019050919050565b60006200041f8262000432565b9050919050565b60008115159050919050565b600073ffffffffffffffffffffffffffffffffffffffff82169050919050565b6000819050919050565b60005b838110156200047c5780820151818401526020810190506200045f565b838111156200048c576000848401525b50505050565b60006002820490506001821680620004ab57607f821691505b60208210811415620004c257620004c1620004c8565b5b50919050565b7f4e487b7100000000000000000000000000000000000000000000000000000000600052602260045260246000fd5b7f4e487b7100000000000000000000000000000000000000000000000000000000600052604160045260246000fd5b620005318162000412565b81146200053d57600080fd5b50565b6200054b8162000426565b81146200055757600080fd5b50565b620005658162000452565b81146200057157600080fd5b50565b612c9d80620005846000396000f3fe608060405234801561001057600080fd5b50600436106101425760003560e01c80636a412749116100b8578063a21193771161007c578063a21193771461037b578063a22cb465146103ab578063b88d4fde146103c7578063c87b56dd146103e3578063ce78131f14610413578063e985e9c51461043157610142565b80636a412749146102d357806370a08231146102f1578063893da6c9146103215780638f15024f1461033f57806395d89b411461035d57610142565b806323b872dd1161010a57806323b872dd146101ff5780633da7796c1461021b57806342842e0e1461024b5780635cfc1a511461026757806361203265146102855780636352211e146102a357610142565b806301ffc9a71461014757806306fdde0314610177578063081812fc14610195578063095ea7b3146101c55780631209b1f6146101e1575b600080fd5b610161600480360381019061015c9190611e3a565b610461565b60405161016e91906125ec565b60405180910390f35b61017f610543565b60405161018c9190612607565b60405180910390f35b6101af60048036038101906101aa9190611ee0565b6105d5565b6040516101bc9190612585565b60405180910390f35b6101df60048036038101906101da9190611dfe565b61065a565b005b6101e9610772565b6040516101f69190612809565b60405180910390f35b61021960048036038101906102149190611cf8565b610778565b005b61023560048036038101906102309190611ee0565b6107d8565b6040516102429190612607565b60405180910390f35b61026560048036038101906102609190611cf8565b61087e565b005b61026f61089e565b60405161027c9190612809565b60405180910390f35b61028d6108a4565b60405161029a9190612585565b60405180910390f35b6102bd60048036038101906102b89190611ee0565b6108ca565b6040516102ca9190612585565b60405180910390f35b6102db61097c565b6040516102e891906125ec565b60405180910390f35b61030b60048036038101906103069190611c93565b61098f565b6040516103189190612809565b60405180910390f35b610329610a47565b60405161033691906125ec565b60405180910390f35b610347610a5a565b6040516103549190612809565b60405180910390f35b610365610a60565b6040516103729190612607565b60405180910390f35b61039560048036038101906103909190611e8c565b610af2565b6040516103a29190612809565b60405180910390f35b6103c560048036038101906103c09190611dc2565b610c88565b005b6103e160048036038101906103dc9190611d47565b610e09565b005b6103fd60048036038101906103f89190611ee0565b610e6b565b60405161040a9190612607565b60405180910390f35b61041b610f12565b6040516104289190612809565b60405180910390f35b61044b60048036038101906104469190611cbc565b610f18565b60405161045891906125ec565b60405180910390f35b60007f80ac58cd000000000000000000000000000000000000000000000000000000007bffffffffffffffffffffffffffffffffffffffffffffffffffffffff1916827bffffffffffffffffffffffffffffffffffffffffffffffffffffffff1916148061052c57507f5b5e139f000000000000000000000000000000000000000000000000000000007bffffffffffffffffffffffffffffffffffffffffffffffffffffffff1916827bffffffffffffffffffffffffffffffffffffffffffffffffffffffff1916145b8061053c575061053b82610fac565b5b9050919050565b60606000805461055290612a92565b80601f016020809104026020016040519081016040528092919081815260200182805461057e90612a92565b80156105cb5780601f106105a0576101008083540402835291602001916105cb565b820191906000526020600020905b8154815290600101906020018083116105ae57829003601f168201915b5050505050905090565b60006105e082611016565b61061f576040517f08c379a000000000000000000000000000000000000000000000000000000000815260040161061690612749565b60405180910390fd5b6004600083815260200190815260200160002060009054906101000a900473ffffffffffffffffffffffffffffffffffffffff169050919050565b6000610665826108ca565b90508073ffffffffffffffffffffffffffffffffffffffff168373ffffffffffffffffffffffffffffffffffffffff1614156106d6576040517f08c379a00000000000000000000000000000000000000000000000000000000081526004016106cd906127a9565b60405180910390fd5b8073ffffffffffffffffffffffffffffffffffffffff166106f5611082565b73ffffffffffffffffffffffffffffffffffffffff16148061072457506107238161071e611082565b610f18565b5b610763576040517f08c379a000000000000000000000000000000000000000000000000000000000815260040161075a906126c9565b60405180910390fd5b61076d838361108a565b505050565b60095481565b610789610783611082565b82611143565b6107c8576040517f08c379a00000000000000000000000000000000000000000000000000000000081526004016107bf906127c9565b60405180910390fd5b6107d3838383611221565b505050565b600f6020528060005260406000206000915090508060000180546107fb90612a92565b80601f016020809104026020016040519081016040528092919081815260200182805461082790612a92565b80156108745780601f1061084957610100808354040283529160200191610874565b820191906000526020600020905b81548152906001019060200180831161085757829003601f168201915b5050505050905081565b61089983838360405180602001604052806000815250610e09565b505050565b600c5481565b600860009054906101000a900473ffffffffffffffffffffffffffffffffffffffff1681565b6000806002600084815260200190815260200160002060009054906101000a900473ffffffffffffffffffffffffffffffffffffffff169050600073ffffffffffffffffffffffffffffffffffffffff168173ffffffffffffffffffffffffffffffffffffffff161415610973576040517f08c379a000000000000000000000000000000000000000000000000000000000815260040161096a90612709565b60405180910390fd5b80915050919050565b600a60009054906101000a900460ff1681565b60008073ffffffffffffffffffffffffffffffffffffffff168273ffffffffffffffffffffffffffffffffffffffff161415610a00576040517f08c379a00000000000000000000000000000000000000000000000000000000081526004016109f7906126e9565b60405180910390fd5b600360008373ffffffffffffffffffffffffffffffffffffffff1673ffffffffffffffffffffffffffffffffffffffff168152602001908152602001600020549050919050565b600e60009054906101000a900460ff1681565b600d5481565b606060018054610a6f90612a92565b80601f0160208091040260200160405190810160405280929190818152602001828054610a9b90612a92565b8015610ae85780601f10610abd57610100808354040283529160200191610ae8565b820191906000526020600020905b815481529060010190602001808311610acb57829003601f168201915b5050505050905090565b6000600c54600d5410610b3a576040517f08c379a0000000000000000000000000000000000000000000000000000000008152600401610b31906127e9565b60405180910390fd5b610b44600661147d565b6000610b506006611493565b9050610b5c83826114a1565b610b89600760009054906101000a900473ffffffffffffffffffffffffffffffffffffffff166001610c88565b6000604051806020016040528086815250905080600f60008481526020019081526020016000206000820151816000019080519060200190610bcc929190611ab7565b509050506001600d54610bdf9190612921565b600d819055507ff77a8cbe2a16f740e6c57f4eb87d71011b039080451dab22c7c51c75f03fa10b8285604051610c16929190612824565b60405180910390a1600c54600d541415610c7d576001600e60006101000a81548160ff0219169083151502179055507f24ca9f876909c26a20bb16982f48b802d9a4239dd59a351a27ed4c9935d8ce5542604051610c749190612809565b60405180910390a15b819250505092915050565b610c90611082565b73ffffffffffffffffffffffffffffffffffffffff168273ffffffffffffffffffffffffffffffffffffffff161415610cfe576040517f08c379a0000000000000000000000000000000000000000000000000000000008152600401610cf590612689565b60405180910390fd5b8060056000610d0b611082565b73ffffffffffffffffffffffffffffffffffffffff1673ffffffffffffffffffffffffffffffffffffffff16815260200190815260200160002060008473ffffffffffffffffffffffffffffffffffffffff1673ffffffffffffffffffffffffffffffffffffffff16815260200190815260200160002060006101000a81548160ff0219169083151502179055508173ffffffffffffffffffffffffffffffffffffffff16610db8611082565b73ffffffffffffffffffffffffffffffffffffffff167f17307eab39ab6107e8899845ad3d59bd9653f200f220920489ca2b5937696c3183604051610dfd91906125ec565b60405180910390a35050565b610e1a610e14611082565b83611143565b610e59576040517f08c379a0000000000000000000000000000000000000000000000000000000008152600401610e50906127c9565b60405180910390fd5b610e65848484846114bf565b50505050565b6060610e7682611016565b610eb5576040517f08c379a0000000000000000000000000000000000000000000000000000000008152600401610eac90612789565b60405180910390fd5b6000610ebf61151b565b90506000815111610edf5760405180602001604052806000815250610f0a565b80610ee984611532565b604051602001610efa929190612561565b6040516020818303038152906040525b915050919050565b600b5481565b6000600560008473ffffffffffffffffffffffffffffffffffffffff1673ffffffffffffffffffffffffffffffffffffffff16815260200190815260200160002060008373ffffffffffffffffffffffffffffffffffffffff1673ffffffffffffffffffffffffffffffffffffffff16815260200190815260200160002060009054906101000a900460ff16905092915050565b60007f01ffc9a7000000000000000000000000000000000000000000000000000000007bffffffffffffffffffffffffffffffffffffffffffffffffffffffff1916827bffffffffffffffffffffffffffffffffffffffffffffffffffffffff1916149050919050565b60008073ffffffffffffffffffffffffffffffffffffffff166002600084815260200190815260200160002060009054906101000a900473ffffffffffffffffffffffffffffffffffffffff1673ffffffffffffffffffffffffffffffffffffffff1614159050919050565b600033905090565b816004600083815260200190815260200160002060006101000a81548173ffffffffffffffffffffffffffffffffffffffff021916908373ffffffffffffffffffffffffffffffffffffffff160217905550808273ffffffffffffffffffffffffffffffffffffffff166110fd836108ca565b73ffffffffffffffffffffffffffffffffffffffff167f8c5be1e5ebec7d5bd14f71427d1e84f3dd0314c0f7b2291e5b200ac8c7c3b92560405160405180910390a45050565b600061114e82611016565b61118d576040517f08c379a0000000000000000000000000000000000000000000000000000000008152600401611184906126a9565b60405180910390fd5b6000611198836108ca565b90508073ffffffffffffffffffffffffffffffffffffffff168473ffffffffffffffffffffffffffffffffffffffff16148061120757508373ffffffffffffffffffffffffffffffffffffffff166111ef846105d5565b73ffffffffffffffffffffffffffffffffffffffff16145b8061121857506112178185610f18565b5b91505092915050565b8273ffffffffffffffffffffffffffffffffffffffff16611241826108ca565b73ffffffffffffffffffffffffffffffffffffffff1614611297576040517f08c379a000000000000000000000000000000000000000000000000000000000815260040161128e90612769565b60405180910390fd5b600073ffffffffffffffffffffffffffffffffffffffff168273ffffffffffffffffffffffffffffffffffffffff161415611307576040517f08c379a00000000000000000000000000000000000000000000000000000000081526004016112fe90612669565b60405180910390fd5b6113128383836116df565b61131d60008261108a565b6001600360008573ffffffffffffffffffffffffffffffffffffffff1673ffffffffffffffffffffffffffffffffffffffff168152602001908152602001600020600082825461136d91906129a8565b925050819055506001600360008473ffffffffffffffffffffffffffffffffffffffff1673ffffffffffffffffffffffffffffffffffffffff16815260200190815260200160002060008282546113c49190612921565b92505081905550816002600083815260200190815260200160002060006101000a81548173ffffffffffffffffffffffffffffffffffffffff021916908373ffffffffffffffffffffffffffffffffffffffff160217905550808273ffffffffffffffffffffffffffffffffffffffff168473ffffffffffffffffffffffffffffffffffffffff167fddf252ad1be2c89b69c2b068fc378daa952ba7f163c4a11628f55a4df523b3ef60405160405180910390a4505050565b6001816000016000828254019250508190555050565b600081600001549050919050565b6114bb8282604051806020016040528060008152506116e4565b5050565b6114ca848484611221565b6114d68484848461173f565b611515576040517f08c379a000000000000000000000000000000000000000000000000000000000815260040161150c90612629565b60405180910390fd5b50505050565b606060405180602001604052806000815250905090565b6060600082141561157a576040518060400160405280600181526020017f300000000000000000000000000000000000000000000000000000000000000081525090506116da565b600082905060005b600082146115ac57808061159590612ac4565b915050600a826115a59190612977565b9150611582565b60008167ffffffffffffffff8111156115ee577f4e487b7100000000000000000000000000000000000000000000000000000000600052604160045260246000fd5b6040519080825280601f01601f1916602001820160405280156116205781602001600182028036833780820191505090505b5090505b600085146116d35760018261163991906129a8565b9150600a856116489190612b0d565b60306116549190612921565b60f81b818381518110611690577f4e487b7100000000000000000000000000000000000000000000000000000000600052603260045260246000fd5b60200101907effffffffffffffffffffffffffffffffffffffffffffffffffffffffffffff1916908160001a905350600a856116cc9190612977565b9450611624565b8093505050505b919050565b505050565b6116ee83836118d6565b6116fb600084848461173f565b61173a576040517f08c379a000000000000000000000000000000000000000000000000000000000815260040161173190612629565b60405180910390fd5b505050565b60006117608473ffffffffffffffffffffffffffffffffffffffff16611aa4565b156118c9578373ffffffffffffffffffffffffffffffffffffffff1663150b7a02611789611082565b8786866040518563ffffffff1660e01b81526004016117ab94939291906125a0565b602060405180830381600087803b1580156117c557600080fd5b505af19250505080156117f657506040513d601f19601f820116820180604052508101906117f39190611e63565b60015b611879573d8060008114611826576040519150601f19603f3d011682016040523d82523d6000602084013e61182b565b606091505b50600081511415611871576040517f08c379a000000000000000000000000000000000000000000000000000000000815260040161186890612629565b60405180910390fd5b805181602001fd5b63150b7a0260e01b7bffffffffffffffffffffffffffffffffffffffffffffffffffffffff1916817bffffffffffffffffffffffffffffffffffffffffffffffffffffffff1916149150506118ce565b600190505b949350505050565b600073ffffffffffffffffffffffffffffffffffffffff168273ffffffffffffffffffffffffffffffffffffffff161415611946576040517f08c379a000000000000000000000000000000000000000000000000000000000815260040161193d90612729565b60405180910390fd5b61194f81611016565b1561198f576040517f08c379a000000000000000000000000000000000000000000000000000000000815260040161198690612649565b60405180910390fd5b61199b600083836116df565b6001600360008473ffffffffffffffffffffffffffffffffffffffff1673ffffffffffffffffffffffffffffffffffffffff16815260200190815260200160002060008282546119eb9190612921565b92505081905550816002600083815260200190815260200160002060006101000a81548173ffffffffffffffffffffffffffffffffffffffff021916908373ffffffffffffffffffffffffffffffffffffffff160217905550808273ffffffffffffffffffffffffffffffffffffffff16600073ffffffffffffffffffffffffffffffffffffffff167fddf252ad1be2c89b69c2b068fc378daa952ba7f163c4a11628f55a4df523b3ef60405160405180910390a45050565b600080823b905060008111915050919050565b828054611ac390612a92565b90600052602060002090601f016020900481019282611ae55760008555611b2c565b82601f10611afe57805160ff1916838001178555611b2c565b82800160010185558215611b2c579182015b82811115611b2b578251825591602001919060010190611b10565b5b509050611b399190611b3d565b5090565b5b80821115611b56576000816000905550600101611b3e565b5090565b6000611b6d611b688461287e565b61284d565b905082815260208101848484011115611b8557600080fd5b611b90848285612a50565b509392505050565b6000611bab611ba6846128ae565b61284d565b905082815260208101848484011115611bc357600080fd5b611bce848285612a50565b509392505050565b600081359050611be581612c0b565b92915050565b600081359050611bfa81612c22565b92915050565b600081359050611c0f81612c39565b92915050565b600081519050611c2481612c39565b92915050565b600082601f830112611c3b57600080fd5b8135611c4b848260208601611b5a565b91505092915050565b600082601f830112611c6557600080fd5b8135611c75848260208601611b98565b91505092915050565b600081359050611c8d81612c50565b92915050565b600060208284031215611ca557600080fd5b6000611cb384828501611bd6565b91505092915050565b60008060408385031215611ccf57600080fd5b6000611cdd85828601611bd6565b9250506020611cee85828601611bd6565b9150509250929050565b600080600060608486031215611d0d57600080fd5b6000611d1b86828701611bd6565b9350506020611d2c86828701611bd6565b9250506040611d3d86828701611c7e565b9150509250925092565b60008060008060808587031215611d5d57600080fd5b6000611d6b87828801611bd6565b9450506020611d7c87828801611bd6565b9350506040611d8d87828801611c7e565b925050606085013567ffffffffffffffff811115611daa57600080fd5b611db687828801611c2a565b91505092959194509250565b60008060408385031215611dd557600080fd5b6000611de385828601611bd6565b9250506020611df485828601611beb565b9150509250929050565b60008060408385031215611e1157600080fd5b6000611e1f85828601611bd6565b9250506020611e3085828601611c7e565b9150509250929050565b600060208284031215611e4c57600080fd5b6000611e5a84828501611c00565b91505092915050565b600060208284031215611e7557600080fd5b6000611e8384828501611c15565b91505092915050565b60008060408385031215611e9f57600080fd5b600083013567ffffffffffffffff811115611eb957600080fd5b611ec585828601611c54565b9250506020611ed685828601611bd6565b9150509250929050565b600060208284031215611ef257600080fd5b6000611f0084828501611c7e565b91505092915050565b611f12816129dc565b82525050565b611f21816129ee565b82525050565b6000611f32826128de565b611f3c81856128f4565b9350611f4c818560208601612a5f565b611f5581612bfa565b840191505092915050565b6000611f6b826128e9565b611f758185612905565b9350611f85818560208601612a5f565b611f8e81612bfa565b840191505092915050565b6000611fa4826128e9565b611fae8185612916565b9350611fbe818560208601612a5f565b80840191505092915050565b6000611fd7603283612905565b91507f4552433732313a207472616e7366657220746f206e6f6e20455243373231526560008301527f63656976657220696d706c656d656e74657200000000000000000000000000006020830152604082019050919050565b600061203d601c83612905565b91507f4552433732313a20746f6b656e20616c7265616479206d696e746564000000006000830152602082019050919050565b600061207d602483612905565b91507f4552433732313a207472616e7366657220746f20746865207a65726f2061646460008301527f72657373000000000000000000000000000000000000000000000000000000006020830152604082019050919050565b60006120e3601983612905565b91507f4552433732313a20617070726f766520746f2063616c6c6572000000000000006000830152602082019050919050565b6000612123602c83612905565b91507f4552433732313a206f70657261746f7220717565727920666f72206e6f6e657860008301527f697374656e7420746f6b656e00000000000000000000000000000000000000006020830152604082019050919050565b6000612189603883612905565b91507f4552433732313a20617070726f76652063616c6c6572206973206e6f74206f7760008301527f6e6572206e6f7220617070726f76656420666f7220616c6c00000000000000006020830152604082019050919050565b60006121ef602a83612905565b91507f4552433732313a2062616c616e636520717565727920666f7220746865207a6560008301527f726f2061646472657373000000000000000000000000000000000000000000006020830152604082019050919050565b6000612255602983612905565b91507f4552433732313a206f776e657220717565727920666f72206e6f6e657869737460008301527f656e7420746f6b656e00000000000000000000000000000000000000000000006020830152604082019050919050565b60006122bb602083612905565b91507f4552433732313a206d696e7420746f20746865207a65726f20616464726573736000830152602082019050919050565b60006122fb602c83612905565b91507f4552433732313a20617070726f76656420717565727920666f72206e6f6e657860008301527f697374656e7420746f6b656e00000000000000000000000000000000000000006020830152604082019050919050565b6000612361602983612905565b91507f4552433732313a207472616e73666572206f6620746f6b656e2074686174206960008301527f73206e6f74206f776e00000000000000000000000000000000000000000000006020830152604082019050919050565b60006123c7602f83612905565b91507f4552433732314d657461646174613a2055524920717565727920666f72206e6f60008301527f6e6578697374656e7420746f6b656e00000000000000000000000000000000006020830152604082019050919050565b600061242d602183612905565b91507f4552433732313a20617070726f76616c20746f2063757272656e74206f776e6560008301527f72000000000000000000000000000000000000000000000000000000000000006020830152604082019050919050565b6000612493603183612905565b91507f4552433732313a207472616e736665722063616c6c6572206973206e6f74206f60008301527f776e6572206e6f7220617070726f7665640000000000000000000000000000006020830152604082019050919050565b60006124f9602d83612905565b91507f5469636b65747320666f722074686973206576656e742061726520637572726560008301527f6e746c7920736f6c64206f7574000000000000000000000000000000000000006020830152604082019050919050565b61255b81612a46565b82525050565b600061256d8285611f99565b91506125798284611f99565b91508190509392505050565b600060208201905061259a6000830184611f09565b92915050565b60006080820190506125b56000830187611f09565b6125c26020830186611f09565b6125cf6040830185612552565b81810360608301526125e18184611f27565b905095945050505050565b60006020820190506126016000830184611f18565b92915050565b600060208201905081810360008301526126218184611f60565b905092915050565b6000602082019050818103600083015261264281611fca565b9050919050565b6000602082019050818103600083015261266281612030565b9050919050565b6000602082019050818103600083015261268281612070565b9050919050565b600060208201905081810360008301526126a2816120d6565b9050919050565b600060208201905081810360008301526126c281612116565b9050919050565b600060208201905081810360008301526126e28161217c565b9050919050565b60006020820190508181036000830152612702816121e2565b9050919050565b6000602082019050818103600083015261272281612248565b9050919050565b60006020820190508181036000830152612742816122ae565b9050919050565b60006020820190508181036000830152612762816122ee565b9050919050565b6000602082019050818103600083015261278281612354565b9050919050565b600060208201905081810360008301526127a2816123ba565b9050919050565b600060208201905081810360008301526127c281612420565b9050919050565b600060208201905081810360008301526127e281612486565b9050919050565b60006020820190508181036000830152612802816124ec565b9050919050565b600060208201905061281e6000830184612552565b92915050565b60006040820190506128396000830185612552565b6128466020830184611f09565b9392505050565b6000604051905081810181811067ffffffffffffffff8211171561287457612873612bcb565b5b8060405250919050565b600067ffffffffffffffff82111561289957612898612bcb565b5b601f19601f8301169050602081019050919050565b600067ffffffffffffffff8211156128c9576128c8612bcb565b5b601f19601f8301169050602081019050919050565b600081519050919050565b600081519050919050565b600082825260208201905092915050565b600082825260208201905092915050565b600081905092915050565b600061292c82612a46565b915061293783612a46565b9250827fffffffffffffffffffffffffffffffffffffffffffffffffffffffffffffffff0382111561296c5761296b612b3e565b5b828201905092915050565b600061298282612a46565b915061298d83612a46565b92508261299d5761299c612b6d565b5b828204905092915050565b60006129b382612a46565b91506129be83612a46565b9250828210156129d1576129d0612b3e565b5b828203905092915050565b60006129e782612a26565b9050919050565b60008115159050919050565b60007fffffffff0000000000000000000000000000000000000000000000000000000082169050919050565b600073ffffffffffffffffffffffffffffffffffffffff82169050919050565b6000819050919050565b82818337600083830152505050565b60005b83811015612a7d578082015181840152602081019050612a62565b83811115612a8c576000848401525b50505050565b60006002820490506001821680612aaa57607f821691505b60208210811415612abe57612abd612b9c565b5b50919050565b6000612acf82612a46565b91507fffffffffffffffffffffffffffffffffffffffffffffffffffffffffffffffff821415612b0257612b01612b3e565b5b600182019050919050565b6000612b1882612a46565b9150612b2383612a46565b925082612b3357612b32612b6d565b5b828206905092915050565b7f4e487b7100000000000000000000000000000000000000000000000000000000600052601160045260246000fd5b7f4e487b7100000000000000000000000000000000000000000000000000000000600052601260045260246000fd5b7f4e487b7100000000000000000000000000000000000000000000000000000000600052602260045260246000fd5b7f4e487b7100000000000000000000000000000000000000000000000000000000600052604160045260246000fd5b6000601f19601f8301169050919050565b612c14816129dc565b8114612c1f57600080fd5b50565b612c2b816129ee565b8114612c3657600080fd5b50565b612c42816129fa565b8114612c4d57600080fd5b50565b612c5981612a46565b8114612c6457600080fd5b5056fea2646970667358221220c4721504ff0d6e78fd8545e4ee833712f7087536a49a366e81f148e9b0f693dc64736f6c634300080000335469636b65747320666f722074686973206576656e74206172652063757272656e746c7920736f6c64206f7574a2646970667358221220e72ccd30e86929852e336e0a7d8c0ce50aa59658dd0a679355b3a787081a9a0964736f6c63430008000033",
  "immutableReferences": {},
  "source": "// SPDX-License-Identifier: MIT\r\npragma solidity ^0.8.0;\r\npragma abicoder v2;\r\n\r\nimport \"@openzeppelin/contracts/token/ERC721/ERC721.sol\";\r\nimport \"@openzeppelin/contracts/utils/Counters.sol\";\r\nimport \"@openzeppelin/contracts/security/ReentrancyGuard.sol\";\r\nimport \"./Ticket.sol\";\r\n\r\ncontract Market is ReentrancyGuard {\r\n    using Counters for Counters.Counter;\r\n\r\n    Counters.Counter private _eventIds;\r\n\r\n    address payable public owner;\r\n\r\n    struct EventDetails {\r\n        string name;\r\n        string symbol;\r\n        address ticketAddress;\r\n        address payable organizer;\r\n        bool soldOut;\r\n        uint256 price;\r\n        bool exists;\r\n        bool completed;\r\n        uint256 id;\r\n        uint256 date;\r\n    }\r\n\r\n    uint256 public listingFee = 0.00024 ether;\r\n\r\n    event EventListed(string, uint256);\r\n\r\n    event EventTicketPurchased(\r\n        string eventName,\r\n        uint256 eventId,\r\n        address ticketAddress,\r\n        address purchaserAddress,\r\n        uint256 ticketId\r\n    );\r\n\r\n    //represents a mapping of events to the eventId\r\n    mapping(uint256 => EventDetails) public eventsList;\r\n\r\n    //represents a mapping of events to an organizer\r\n    mapping(address => EventDetails[]) public eventToOrganizerMapping;\r\n\r\n    EventDetails[] public allEvents;\r\n\r\n    modifier onlyOwner() {\r\n        require(msg.sender == owner, \"This function is restricted to admins\");\r\n        _;\r\n    }\r\n\r\n    constructor() {\r\n        owner = payable(msg.sender);\r\n    }\r\n\r\n    function listEvent(\r\n        string memory _eventName,\r\n        string memory _eventSymbol,\r\n        uint256 _eventCapacity,\r\n        bool _canResellTickets,\r\n        uint256 _resellPercentage,\r\n        uint256 _ticketPrice,\r\n        uint256 _date\r\n    ) public payable returns (address ticketAddress) {\r\n        require(\r\n            msg.value >= listingFee,\r\n            \"You cannot list an event without paying the listing fee\"\r\n        );\r\n\r\n        //set up id for new event;\r\n        _eventIds.increment();\r\n        uint256 eventId = _eventIds.current();\r\n\r\n        //pay listing fee\r\n        owner.transfer(msg.value);\r\n\r\n        //create event contract\r\n        Ticket eventTicket = new Ticket(\r\n            owner,\r\n            msg.sender,\r\n            _ticketPrice,\r\n            _canResellTickets,\r\n            _resellPercentage,\r\n            _eventCapacity,\r\n            _eventName,\r\n            _eventSymbol\r\n        );\r\n\r\n        //create eventdetails struct\r\n        EventDetails memory details = EventDetails({\r\n            name: _eventName,\r\n            symbol: _eventSymbol,\r\n            ticketAddress: address(eventTicket),\r\n            organizer: payable(msg.sender),\r\n            soldOut: false,\r\n            price: _ticketPrice,\r\n            exists: true,\r\n            completed: false,\r\n            id: eventId,\r\n            date: _date\r\n        });\r\n\r\n        //map eventid to event details struct\r\n        eventsList[eventId] = details;\r\n\r\n        //emit event\r\n        emit EventListed(_eventName, eventId);\r\n\r\n        //add event details to event array mapped to the current msg.sender\r\n        eventToOrganizerMapping[msg.sender].push(details);\r\n\r\n        //add event to list of events;\r\n        allEvents.push(details);\r\n\r\n        return address(eventTicket);\r\n    }\r\n\r\n    function getUsersEvents(address organizer)\r\n        public\r\n        view\r\n        returns (EventDetails[] memory)\r\n    {\r\n        return eventToOrganizerMapping[organizer];\r\n    }\r\n\r\n    function getAllEvents() public view returns (EventDetails[] memory) {\r\n        return allEvents;\r\n    }\r\n\r\n    function purchaseEventTicket(\r\n        uint256 eventId,\r\n        string memory purchaserFullname\r\n    ) public payable {\r\n        bool validEventId = eventsList[eventId].exists;\r\n        if (validEventId == false) {\r\n            revert(\"Invalid event Id provided\");\r\n        }\r\n        address txAddress = eventsList[eventId].ticketAddress;\r\n        uint256 ticketPrice = eventsList[eventId].price;\r\n        require(\r\n            msg.value >= ticketPrice,\r\n            \"Value provided is less than ticket price\"\r\n        );\r\n        eventsList[eventId].organizer.transfer(msg.value);\r\n\r\n        Ticket ticket = Ticket(txAddress);\r\n        try ticket.createToken(purchaserFullname, msg.sender) returns (\r\n            uint256 id\r\n        ) {\r\n            emit EventTicketPurchased(\r\n                eventsList[eventId].name,\r\n                eventId,\r\n                txAddress,\r\n                msg.sender,\r\n                id\r\n            );\r\n        } catch Error(string memory reason) {\r\n            if (\r\n                keccak256(bytes(reason)) ==\r\n                keccak256(\r\n                    bytes(\"Tickets for this event are currently sold out\")\r\n                )\r\n            ) {\r\n                //update event details to show sold out\r\n            }\r\n            revert(reason);\r\n        }\r\n    }\r\n}\r\n",
  "sourcePath": "C:/Users/Asami/devStrawhat/3WEB/ticketing/contracts/Market.sol",
  "compiler": {
    "name": "solc",
    "version": "0.8.0+commit.c7dfd78e.Emscripten.clang"
  },
  "schemaVersion": "3.2.3",
  "updatedAt": "2021-12-04T17:30:40.259Z",
  "networkType": "ethereum",
  "devdoc": {
    "kind": "dev",
    "methods": {},
    "version": 1
  },
  "userdoc": {
    "kind": "user",
    "methods": {},
    "version": 1
  }
}